:020000040000FA
:10000000C0070000D1060000D1000000B1060000CA
:1000100000000000000000000000000000000000E0
:100020000000000000000000000000005107000078
:100030000000000000000000DB000000E500000000
:10004000EF000000F9000000030100000D010000B6
:1000500017010000210100002B0100003501000004
:100060003F01000049010000530100005D01000054
:1000700067010000710100007B01000085010000A4
:100080008F01000099010000A3010000AD010000F4
:10009000B7010000C1010000CB010000D501000044
:1000A000DF010000E9010000F3010000FD01000094
:1000B00007020000110200001B02000025020000E0
:1000C0001FB5C046C04600F0EFFA04B00FB41FBD24
:1000D00008205A49096809580847382057490968CB
:1000E000095808473C2055490968095808474020E5
:1000F0005249096809580847442050490968095875
:10010000084748204D490968095808474C204B4981
:10011000096809580847502048490968095808479C
:100120005420464909680958084758204349096836
:10013000095808475C204149096809580847602068
:100140003E4909680958084764203C49096809582C
:100150000847682039490968095808476C20374919
:100160000968095808477020344909680958084740
:100170007420324909680958084778202F490968CE
:10018000095808477C202D490968095808478020EC
:100190002A490968095808478420284909680958E4
:1001A0000847882025490968095808478C202349B1
:1001B00009680958084790202049096809580847E4
:1001C00094201E4909680958084798201B49096866
:1001D000095808479C201949096809580847A02070
:1001E0001649096809580847A4201449096809589C
:1001F0000847A8201149096809580847AC200F4949
:10020000096809580847B0200C4909680958084787
:10021000B4200A49096809580847B82007490968FD
:1002200009580847BC2005490968095808470000D3
:1002300003480449024A034B7047000000000020B5
:10024000C0070000C00700000122D84B5A6000BF61
:10025000D74A1268002AFBD0016000BFD44A126856
:10026000002AFBD00022D14B5A6000BFD04A12684E
:10027000002AFBD07047F0B505460E46174600240D
:1002800006E0A200B158A2005019FFF7DDFF641C80
:10029000BC42F6D30020F0BD0120C043C549086030
:1002A000401048607047014601229204086890425D
:1002B00001D9102070470020FCE7F0B505460C4638
:1002C0001646002706E028462168FFF7BDFF2D1DD2
:1002D000241D7F1CB742F6D3F0BD70B505460C4611
:1002E0002E460BE0304600F075F9FF2C01D80024B3
:1002F00001E0FF3C013C012080023618002CF1D1C6
:1003000070BD0146012292044868904201D909203B
:100310007047A9484069401C01D10F20F8E7002030
:10032000F6E7FEB504462068030000F037FA05043E
:100330002B4249598B00201DFFF7E3FF0546002D96
:1003400001D02846FEBDFFF7A7FF0120C00200F044
:1003500041F9042221469948FFF78DFF002801D07A
:100360000320EFE708222146944800F06DF90028A9
:1003700006D1002192480068FFF766FF00F00CF9F3
:100380000320DFE7A768E6686068019031463846D9
:10039000FFF7A3FF324638460199FFF78EFFB20000
:1003A0003846019900F050F9002800D1CAE703202F
:1003B000C8E700F0E3F9834800688349086041E03A
:1003C00060680190E668A0680090B200009901980A
:1003D00000F03AF90746002F00D1B3E70E20B1E74D
:1003E000201DFFF760FF0546002D01D02846A9E734
:1003F0006068002807D1FFF74FFF0320800200F05C
:10040000E9F800F0C9F8FFF747FF0120C00200F04B
:10041000E1F8042221466948FFF72DFF002801D0AA
:1004200003208FE708222146644800F00DF90028D8
:1004300006D1002162480068FFF706FF00F0ACF823
:1004400003207FE700BF00207CE770B505460C461F
:10045000182D04D12068FFF764FF206002E001201E
:10046000206000BF00BF70BDF0B589B05248406940
:1004700003905248806881000398081802900398FE
:10048000000B01900121090302984018401E000B47
:1004900000900124002520462946019A00F0C4F866
:1004A0000022401E91410791069001260027304608
:1004B0003946009A00F0B8F80022401E914105919B
:1004C0000490049BDB43059AD2430698184307998E
:1004D00011430791069037490698086007984860CD
:1004E00009B0F0BD70B53448446934488568466841
:1004F000AA003146204600F0A7F8002801D00020CD
:1005000070BD0120FCE72D484068002801D0012083
:1005100000E000200546FFF7E5FF002807D0FFF7C1
:10052000BBFE0320800200F055F800F035F8FFF71D
:100530009BFF002D0ED020484669204884684768FC
:1005400021463046FFF7C9FE224639463046FFF7BE
:10055000B4FE00BF00F020F810B5184844681A48EF
:100560000460204600F0DCF810BD15480068006803
:10057000401C01D100BFFEE710480068002802D0EF
:10058000042806D101E0FFF7BEFFFFF7E5FF00BF3B
:10059000FEE700BF00BFFEE7BFF34F8F0B480C49DB
:1005A000C860BFF34F8F00BFFEE7000000E50140C9
:1005B00000E40140000600400010001000080000A8
:1005C000B8070000BC070000000000200400FA0586
:1005D00000ED00E010B50146104B1A6808460223F2
:1005E0000F4C636000BF0F4B1B68002BFBD0531CEC
:1005F00004D0904202D20A4B186101E0084B986087
:1006000000BF084B1B68002BFBD00023044C636029
:1006100000BF044B1B68002BFBD010BD0010001066
:1006200000E5014000E4014010B5202A04DB01464A
:10063000203A9140002010BD914020239C1A03468F
:10064000E3401943904010BD034610B50B439B0790
:100650000FD1042A0DD308C810C9121FA342F8D025
:1006600018BA21BA884201D9012010BD0020C04328
:1006700010BD002A03D0D30703D0521C07E000208E
:1006800010BD03780C78401C491C1B1B07D1037854
:100690000C78401C491C1B1B01D1921EF1D118463D
:1006A00010BD70477047704710B500F007F810BDD7
:1006B000014B1B68DB6818470000002019481A49E5
:1006C0007047FFF7FBFFFFF7FBFC00BD20BFFDE716
:1006D0001649174C24688C420BD1164B1B68994263
:1006E0000CD1154B154A1360186810498842EDD09B
:1006F0000AE0134880F30888124B18470F4A13602A
:1007000018680A498842E1D080F308880E49884277
:1007100004DD0E48026802210A4302605B68184744
:100720000346DFE7C0070000C0070000FFFFFFFF30
:10073000000C000014100010001000000000002049
:10074000000400206B05000000200020240500406C
:100750000D48704502D1EFF3098101E0EFF3088104
:10076000886902380078182802D1C046074A104725
:10077000074A12682C3212681047000000B5054B7A
:10078000054A9B58984700BDFDFFFFFF4B04000042
:1007900000000020001000000400000030B4744687
:1007A000641E2578641CAB4204D3635D5B00E318D0
:1007B00030BC18471D46F8E7000C00000010000090
:10100000B808002045C10000E9140000ABC0000092
:1010100000000000000000000000000000000000D0
:10102000000000000000000000000000B5C100004A
:101030000000000000000000E9140000E9140000B6
:1010400021C2000027C20000E9140000E9140000DA
:10105000E9140000E9140000E9140000E91400009C
:101060002DC20000E9140000E914000033C20000A2
:10107000E914000039C200003FC2000045C2000070
:10108000E9140000E9140000E9140000E91400006C
:10109000E9140000E9140000E9140000E91400005C
:1010A0004BC2000051C20000E9140000E914000026
:1010B000E9140000E9140000E9140000E91400003C
:1010C00000F002F80BF01FF80CA030C80838241804
:1010D0002D18A246671EAB4654465D46AC4201D170
:1010E0000BF011F87E460F3E0FCCB6460126334278
:1010F00000D0FB1AA246AB463343184734B2000077
:1011000054B200000023002400250026103A01D329
:1011100078C1FBD8520700D330C100D50B607047AF
:101120001FB5C046C04601F064FF04B00FB41FBD38
:1011300040BA7047C0BA704740BA7047C0BA7047EB
:10114000F0B44046494652465B460FB402A0013017
:1011500001B50648004700BF01BC86460FBC80466B
:10116000894692469B46F0BC70470000C1100000C3
:1011700040BA7047C0BA704740BA7047C0BA7047AB
:1011800040BA7047C0BA704740BA7047C0BA70479B
:1011900040BA7047C0BA704740BA7047C0BA70478B
:1011A00040BA7047C0BA704740BA7047C0BA70477B
:1011B000826902498161024810447047C5110000EC
:1011C0000100000001B41EB400B501F067FC01B4D9
:1011D0000198864601BC01B01EBD000040BA7047B0
:1011E000C0BA704740BA7047C0BA7047401E00BFCF
:1011F00000BF00BF00BF00BF00BF00BF00BF00BFF7
:1012000000BF00BF00BFF1D17047000040BA704777
:10121000C0BA704740BA7047C0BA704740BA70470A
:10122000C0BA704740BA7047C0BA704740BA7047FA
:10123000C0BA704740BA7047C0BA704740BA7047EA
:10124000C0BA704740BA7047C0BA704740BA7047DA
:10125000C0BA704740BA7047C0BA704740BA7047CA
:10126000C0BA704740BA7047C0BA704740BA7047BA
:10127000C0BA704740BA7047C0BA704740BA7047AA
:10128000C0BA704740BA7047C0BA704740BA70479A
:10129000C0BA704740BA7047C0BA704770B50546CB
:1012A0000C46164602E00FCC0FC5103E102EFAD2A7
:1012B000082E02D303CC03C5083E042E07D301CC6D
:1012C00001C5361F03E021782970641C6D1C761E51
:1012D000F9D270BD10B572B600F0DEF800280BD060
:1012E00000F0B4F901F029FF03F030FC6F49002051
:1012F000C86288626E49086062B6002010BDF3B50E
:10130000002501200007C06A81B0C0430006000E1E
:1013100004D168480068401C00D1012572B600F075
:10132000BBF8002801D062B687E0FFF709FF00F0A4
:1013300091F9614C614A00212368CB40DB071FD043
:101340000346CB40DB0718D14BB2002B07DA1E0750
:10135000360F083EB608B600B618F66904E09E08D7
:10136000574FB600F61936689B07DB0EDE40B30414
:101370001B0E012B04D0032B02D062B65148FEBDD8
:10138000491C2029D8D3019C01204F4923000AF091
:1013900092FF142224242424242424240B0D10122C
:1013A000142016181A1C1E2F002400E00124C86304
:1013B00014E00224FBE70324F9E70424F7E70824F8
:1013C000F5E70924F3E70A24F1E70B24EFE70C24FF
:1013D000EDE70524EBE7072400E00624D0690121AE
:1013E0000002000AC9070843D061002D04D009E0BB
:1013F00062B601200003FEBD2C4D3448E86200F0C7
:1014000029F9A8622A4932480860324902980860DE
:1014100000F020F9214603F080FB01F054FE03F0B8
:1014200055FD03F0CBFB019800F0BAF8040062B65A
:1014300003D0FFF74FFF2046FEBD0020FEBD10B5D4
:10144000044600F029F8002800D001202070002078
:1014500010BD214908600020704710B50C461028C7
:1014600008D011280BD012280CD013280ED0012040
:10147000086010BD61682068FFF741FF0AE0FFF7D0
:1014800029FF07E02068FFF7DAFF03E01249206830
:1014900008600020206010BD05480D4900688842A2
:1014A00001D1012070470020704700000005004076
:1014B0000C0000200010001000E100E000ED00E052
:1014C00000E400E0011000004000004000090000BE
:1014D000BEBAFECA08000020040000200E4A1268AE
:1014E0000C498A420AD118470B4A1268094B9A42A2
:1014F00004D101B501F0C9FA03BC8E460749096859
:101500000958084706480749054A064B7047000036
:1015100000000000BEBAFECA0C000020040000203B
:10152000B8080020B808002010B50146202209485C
:101530000AF00EFC07490020C877084610BD06498E
:10154000012048610548064A0168914201D1002105
:1015500001607047F8010020000500400C000020E9
:10156000BEBAFECA8307FF22DB0E9A408907090E26
:10157000994000280BDA0007000F083883083A4822
:101580009B001B18D86990430843D86170478308B3
:1015900036489B001B181868904308431860704732
:1015A00010B5334A0446D06980B23C2815D0314981
:1015B000088CC0B2012812D1888C00070FD1088D89
:1015C0000006000F01280AD1888D0006000F06D101
:1015D000D0692949000C884201D1022010BD0021A8
:1015E0000120FFF7BFFF00211820FFF7BBFF0021FC
:1015F0000B20FFF7B7FF02211920FFF7B3FF0221ED
:101600000D20FFF7AFFF02210E20FFF7ABFF0221F5
:101610000F20FFF7A7FF0221C81FFFF7A3FF032139
:101620001620FFF79FFF03211520FFF79BFF134AAA
:10163000042310461946103801F010FB204600F034
:1016400025F8002010BD57210180704710B500F02B
:101650002FF810BD0A48704710B500F059FD10BDB5
:10166000704770477047704700ED00E000E400E00D
:1016700040000010C00F00F0FFFF00002802002013
:1016800003F900C310B508F0F1FA10BD10B5FC481D
:10169000017800290BD101210170FA484173FA4801
:1016A00004F0DCFBF94804F037FC06F066F810BDE6
:1016B000F3480178002907D010B500210170F148E6
:1016C000417304F0FDFB10BD7047ED480078002821
:1016D00001D10220704710B504F0F2FB04F0C5FC04
:1016E00006F04BF8002010BDF8B50D4604001BD0E5
:1016F000E748844218D301214907E64B8C4201D3C5
:101700009C4211D3002D0FD085420DD38D4201D3C1
:101710009D4209D3002A07D01646824204D33046A0
:101720008A4203D39A4201D20720F8BD06F0D6FDC3
:10173000694600904878287009782170002801D007
:101740000020F8BD0520F8BD072801D9D248704710
:10175000072A01D9D148704770B504461D4606F0E6
:1017600095F9002805D12946204606F0D2F900282F
:1017700002D001218903084370BD072801D9C6485A
:10178000704710B506F0F0F9002802D00121890356
:10179000084310BD072801D9BF48704710B505F0B0
:1017A00093FC002802D001218903084310BD0728BB
:1017B00001D9B948704710B506F0E4F9002802D005
:1017C00001218903084310BD10B506F015FA002861
:1017D00002D001218903084310BD10B5072801D9A3
:1017E000AD4810BD002A0AD0A94C1346A24206D328
:1017F00001246407A24204D3A64CA24201D20720CE
:1018000010BD0A46002104F0B2FE502803D0012189
:101810008903084310BD002010BD10B5072801D969
:101820009D4810BD002A0AD0994C1346A24206D307
:1018300001246407A24204D3964CA24201D207209D
:1018400010BD0A46A02104F092FE502803D00121C9
:101850008903084310BD002010BD70B5072801D9C9
:101860008D4870BD002A09D0894DAA4206D30125B2
:101870006D07AA4204D3874DAA4201D2072070BD4A
:1018800005F0B6FD502803D001218903084370BD3F
:10189000002070BD002809D07D4A904206D3012265
:1018A0005207904204D37B4A904201D207207047EE
:1018B00010B505F0EFFD002802D00121890308438F
:1018C00010BD10B505F0F2FD002802D001218903FA
:1018D000084310BD072801D96F487047002909D077
:1018E0006B4A914206D301225207914204D3694ABE
:1018F000914201D20720704710B50C4606F004FA59
:101900002070002010BD10B506F0FDFA002010BDBB
:10191000072801D961487047002909D05C4B9942DA
:1019200006D301235B07994204D35A4B994201D253
:101930000720704710B505F0AAFA002010BD07284F
:1019400001D95548704710B505F0C6F8002010BD04
:10195000072801D950487047002909D04C4A9142C4
:1019600006D301225207914204D34A4A914201D23E
:101970000720704710B50C4605F0BAF8207000201B
:1019800010BD072801D94448704710B505F090F8FC
:10199000002010BD072801D93F48704710B505F059
:1019A000B9F8002010BD072801D93B48704710B591
:1019B00006F01CF8002010BD072801D936487047F2
:1019C000002909D0324A914206D30122520791429E
:1019D00004D3304A914201D20720704710B50C461B
:1019E00006F01CF82080002010BD072801D92A48E5
:1019F000704738B56C462170090A6170A270E370B7
:101A0000694605F0E1FF002802D00121890308435F
:101A100038BDF8B51C4615460E46072801D91E48A4
:101A2000F8BD002919D01A4B994216D3012252074A
:101A3000184F914201D3BE420FD329000DD09942D5
:101A40000BD3914201D3BD4207D3210005D0994267
:101A500003D3914203D3BC4201D20720F8BD6946AB
:101A600005F08BFF6846017840780002084330801B
:101A70006846807828706846C07820700020F8BDDD
:101A80001000002088020020680200208516000057
:101A900000D0000000090020334000002940000071
:101AA000072801D9FC48704710B505F0C1FF002098
:101AB00010BD072801D9F848704710B505F0B5FFEB
:101AC000002010BD072801D9F348704710B505F074
:101AD000B3FF002010BD072801D9EF48704710B5AB
:101AE00005F0AFFF002010BD072801D9EA48704774
:101AF000002909D0E94A914206D3012252079142B6
:101B000004D3E74A914201D20720704710B50C4632
:101B100005F09AFF2070002010BD072801D9DE488B
:101B2000704710B505F07EFF002010BD002809D0D9
:101B3000DA4B984206D301235B07984204D3D84B73
:101B4000984201D20720704710B506F0E3F900284B
:101B500002D001218903084310BD002909D0CF4BD1
:101B6000994206D301235B07994204D3CC4B994297
:101B700001D20720704710B506F002FA002802D003
:101B800001218903084310BD10B505F0D1FE0028DE
:101B900002D001218903084310BD10B505F0D1FE24
:101BA000002010BD002809D0BC49884206D301217D
:101BB0004907884204D3BA49884201D207207047B6
:101BC00010B5044605F0C2FE2070002010BD10B50F
:101BD00082B0072802D9B04802B010BD002909D050
:101BE000AE4CA14206D301246407A14205D3AC4CFC
:101BF000A14202D2072002B010BD0C786B461C70C7
:101C00004C785C708C789C70C978D9701A71694670
:101C100005F06EFC0028EED001218903084302B0D4
:101C200010BD072801D99C48704708B56B4619704C
:101C30005A70694605F044FC002802D0012189034E
:101C4000084308BD072801D99348704710B505F02F
:101C500076FC002010BD10B505F067FC002010BD1B
:101C6000002809D08D49884206D3012149078842BE
:101C700004D38B49884201D20720704738B5044607
:101C8000684605F055FC6846017840780002084334
:101C90002080002038BD002909D0804B994206D30E
:101CA00001235B07994204D37D4B994201D207205F
:101CB000704710B506F075FC002802D00121890399
:101CC000084310BD002909D0744B994206D3012363
:101CD0005B07994204D3724B994201D207207047A7
:101CE00010B506F06AFC002802D0012189030843E0
:101CF00010BD072801D96848704710B506F06BFC85
:101D0000002802D001218903084310BD072801D90A
:101D10006148704710B506F06AFC002802D0012126
:101D20008903084310BD002909D05C4B994206D3B2
:101D300001235B07994204D3594B994201D20720F2
:101D4000704710B506F0DEFC002802D0012189039F
:101D5000084310BD002909D0504B994206D30123F6
:101D60005B07994204D34E4B994201D2072070473A
:101D700010B506F0D7FC002802D0012189030843E2
:101D800010BD002909D0454B994206D301235B07BA
:101D9000994204D3424B994201D20720704710B5B3
:101DA00006F0D9FC002010BD10B506F0F7FC0028A5
:101DB00002D001218903084310BD70B5002811D05D
:101DC000364A90420ED301235B07354C984201D32B
:101DD000A04207D3002905D0914203D3994203D3EF
:101DE000A14201D2072070BD06F0F6FC002070BDB4
:101DF000072801D92848704770B5144605460122C6
:101E000026485207264B002905D081420BD3914228
:101E100001D3994207D3002C07D0844203D39442C4
:101E200003D39C4201D2072070BD002902D028466E
:101E300005F0C4FB002C03D02146284605F0FCFB2E
:101E4000002070BD072801D91348704770B51446AB
:101E50000546012211485207114B002905D0814245
:101E60000BD3914201D3994207D3002C07D084426F
:101E700003D3944203D39C4201D2072070BD0029B2
:101E800002D0284605F0BCFB002C03D02146284692
:101E900005F0DFFB002070BD3340000000D00000E3
:101EA00000090020002809D09449884206D3012166
:101EB0004907884204D39249884201D207207047DB
:101EC00010B5044605F045FD2070002010BD002827
:101ED00009D08A49884206D301214907884204D3A0
:101EE0008749884201D20720704710B5044605F0A3
:101EF00035FD2070002010BD072801D981487047AA
:101F0000002909D07D4A914206D30122520791420D
:101F100004D37B4A914201D20720704710B50C468A
:101F200005F022FD2070002010BD072801D975485A
:101F30007047002909D0714A914206D30122520705
:101F4000914204D36E4A914201D20720704710B5E6
:101F50000C4605F00CFD2070002010BD10B504F0FB
:101F600058FD002010BD10B504F059FD002010BD33
:101F700010B5002809D0614A904206D301225207C9
:101F8000904204D35E4A904201D2072010BD5E4ABF
:101F9000811A002901DD0B2904DB0B225A4909F0C3
:101FA0003BFF06E00021535C4354491CC9B20B2996
:101FB000F9D3002010BD10B40123002809D04F4AE6
:101FC000904206D35C070021A04205D34C4CA042AE
:101FD00002D210BC07207047082202704270817044
:101FE000B222C270362202714171F5218171C37132
:101FF00010BC00207047F8B58446012606203F4DEE
:1020000076073F4F0C46002905D0A94213D3B142B1
:1020100001D3BC420FD3002A05D0AA420BD3B2424F
:1020200001D3BA4207D3002B07D0AB4203D3B3424C
:1020300003D3BB4201D20720F8BD6146002908D076
:1020400001290BD00229F7D1207806F0CCFB002023
:10205000F8BD207804F073F80020F8BD04F073F8A0
:102060002070F4E7F8B58446012606207607244F51
:10207000224D0C46002905D0A94213D3B14201D309
:10208000BC420FD3002A05D0AA420BD3B24201D3DF
:10209000BA4207D3002B07D0AB4203D3B34203D3DA
:1020A000BB4201D20720F8BD6146002908D00129B2
:1020B00013D00229F7D1207806F0A0FB0020F8BD4C
:1020C000002630462660002D0FD9317809F061F8DE
:1020D000761C2060AE42F8D307E00C4822788105D8
:1020E000002A826A03D00A4382620020F8BD8A4334
:1020F000FAE710B509F0C1FD10BD000000D00000E6
:102100000009002033400000D0C20000000500405C
:1021100010B5C0380C4640282DD203007B441B79F3
:10212000DB189F441F222933373B3F434A515A5FF4
:1021300062676D727A82888D979EA4AAB0B6BBC181
:10214000C7CCD0F1F5FCEDECEBEAE9E8E7E6E5E435
:10215000E3E2E1E0DFDEDDDCDBDAD9D8D7D6282820
:1021600028D528D4FFF7B1FA04E0A2686168206896
:10217000FFF7BAFA206010BD207BC3B2207AC2B24A
:102180002079C1B22078FFF7DFFAF3E72078FFF774
:10219000F4FAEFE72078FFF7FDFAEBE72078FFF796
:1021A00006FBE7E72078FFF70FFBE3E72079A2685B
:1021B000C1B22078FFF711FBDCE72079A268C1B239
:1021C0002078FFF72AFBD5E7207BA268C3B2A0885E
:1021D00081B22078FFF741FBCCE720786168FFF7F8
:1021E00079FBC7E7FFF78FFBC4E720786168FFF74B
:1021F0008FFBBFE72079C1B22078FFF7A0FBB9E7DA
:1022000020786168FFF7A4FBB4E7207AC2B2207996
:10221000C1B22078FFF7B5FBACE7207AC2B22079D3
:10222000C1B22078FFF7B6FBA4E7A08881B220787E
:10223000FFF7B9FB9EE720786168FFF7BDFB99E7E0
:10224000207BC3B2207AC2B2A08881B22078FFF787
:10225000CCFB8FE72078E368A2686168FFF7D9FBC1
:1022600088E7A08881B22078FFF71AFC82E72079FE
:10227000C1B22078FFF71DFC7CE72079C1B220783D
:10228000FFF720FC76E72079C1B22078FFF723FC26
:1022900070E720786168FFF727FC6BE72079C1B20F
:1022A0002078FFF73AFC65E72079C1B22068FFF794
:1022B0003DFC5FE720786168FFF74FFC5AE7207824
:1022C000FFF762FC56E72078FFF767FC52E7B4E0BF
:1022D000ACE0A5E09EE098E091E08BE085E07FE057
:1022E00074E06DE067E061E05DE058E053E04EE0EF
:1022F00045E041E03BE035E030E02BE026E020E047
:1023000015E00CE004E0FFE72068FFF74BFC31E745
:10231000207A6168C2B22078FFF759FC2AE7207A58
:10232000C2B22079C1B22078FFF77BFC22E7207B84
:10233000C3B2207AC2B22079C1B22078FFF782FC02
:1023400018E7208880B2FFF786FC13E72068FFF7C4
:1023500087FC0FE72068FFF7A5FD0BE72068FFF774
:10236000B6FD07E720786168FFF7C6FD02E7207831
:102370006168FFF7DAFDFDE6FFF7F0FDFAE6207A87
:10238000C2B22079C1B22078FFF7EDFDF2E62068F5
:10239000FFF7EEFDEEE62068FFF70DFEEAE62068A7
:1023A000FFF778FAE6E6FFF78CFAE3E62078616853
:1023B000FFF771FCDEE620786168FFF783FCD9E661
:1023C0002079C1B22078FFF794FCD3E6207BC3B21A
:1023D000207AC2B22079C1B22078FFF797FCC9E613
:1023E00020786168FFF79FFCC4E620786168FFF7FA
:1023F000B1FCBFE620786168FFF7C3FCBAE6A088AD
:1024000081B22078FFF7D0FCB4E661682068FFF75E
:10241000D4FCAFE62078A2686168FFF7E9FCA9E682
:102420002078A2686168FFF70DFDA3E62078E368D5
:10243000A2686168FFF7DFFD9CE62078E368A26888
:102440006168FFF70FFE95E630B40121BD48C9026F
:102450000160CD1005604A030260BB4803681B029F
:102460001B0A036004680023240A24020460B7489E
:102470000468240A24020460B5480124446084608E
:10248000B44C23606360A360B34B19601D601A6095
:10249000B24B19601A600121016030BC704710B462
:1024A0000121A848CC0204600A0202600B06036006
:1024B000A74841608160A7490020086048608860A3
:1024C000A54804600260036010BC70470121A24867
:1024D000C9020160C91001607047002805D00128B9
:1024E00005D0022805D19E4870479E4870479E48F7
:1024F000704710B59DA18C2009F0D1FD002010BDC2
:1025000070B50021A04CA14DA14A924B002808D0E3
:1025100001281DD0022822D094A1B42009F0BFFDCB
:1025200070BD01200004A060A86011601960994B83
:1025300042109A60984A9060824A00121060974850
:10254000016088480160964801609648017070BD3E
:1025500001204004A060A8605160596070BD012056
:102560008004A060A8609160996070BDF8B5944641
:10257000854A864D00240127764E002808D0012880
:1025800036D0022844D079A1E92009F088FDF8BDB1
:10259000891E0902090A0120000490603460686005
:1025A0007B4A1160012B21D000217E4A7E4B517065
:1025B00061463D31DC63DF637C4B5C6002249C60E0
:1025C00004241C61754B196075490F60624B8915B5
:1025D0001960714B58606148016076487449C16068
:1025E00086606C49600348601770F8BD0121DCE724
:1025F00001205D4E4004704F012B04D134605060C7
:1026000068603960F8BD9060346068603960F8BD1A
:102610000120534E8004694F012BF4D1EEE7684846
:102620004068704770B54B4D28680026564C01280D
:1026300006D1A068C00303D501200004A0602E606D
:102640006868012809D1A068800306D501204004EC
:10265000A0606E60012001F09FFCA868012809D1EC
:10266000A068400306D501208004A060AE6002206F
:1026700001F092FC70BD10B54A490878002818D0C6
:102680000120444AC0039060434A400090602D4AB4
:1026900000121060414A00201060324A1060404A27
:1026A000106008704A78002A02D0487001F074FC6B
:1026B00010BD0320FAE70120424900060860704778
:1026C0000120254900060860704701203D4940056A
:1026D0000860704701202049400508607047324972
:1026E0000020C86388151C4908607047410A364AB3
:1026F000C005C00D50435143801C08225040400A81
:102700000818704710B4314C430B63431B0C5C0238
:102710000C602D4C6343C31A2D485C0258432A4B6E
:10272000400D4343E31A9B1C082463405B12137063
:102730000A681018086010BC704710B501F007FD5A
:1027400010BD000080E100E008E400E018E400E0D3
:1027500000B0004040B1004080E200E000E100E055
:1027600048B100404081004044B100407372635C56
:1027700072656D5F68616C5F6576656E745F7469C4
:102780006D65722E6300000000B3004040B300404E
:1027900040B5004000F50140008300404085004006
:1027A000008200401C000020C08F004000850040D7
:1027B0000080004080F5014044B5004048B500402D
:1027C00000B5004000E200E0093D0000378600004F
:1027D0006F0C010010B501F0A6FC10BD00200449EB
:1027E000C863012001218140024A116000BF704787
:1027F000C01F004080E200E070B520380C460300A6
:1028000009F059FD33EFFCED1B1F23272C31373C1A
:1028100041484E5155595D616F73676B767A7E8280
:10282000868A8E92969AB2B5B8BCC0C4C8CED2D6AB
:10283000DBE0F0EBEAE9F4F8E600206808F04CFF92
:10284000F4E0206808F050FFF0E0206808F064FF32
:10285000ECE0207840B208F082FFE7E0207840B258
:1028600008F0A3FFE2E02078616840B208F0B9FF09
:10287000DCE0207840B208F0C9FFD7E0207840B211
:1028800008F0D4FFD2E02079C1B2207840B208F03D
:10289000DEFFCBE02078616840B209F00EF8C5E0B9
:1028A00009F01AF8C2E0206809F01EF8BEE02078AE
:1028B00009F033F8BAE0206808F02AFEB6E0206894
:1028C00008F02AFEB2E02079C1B2206808F02BFEA1
:1028D000ACE0206808F074FCA8E0206808F075FC03
:1028E000A4E0207808F075FCA0E008F083FC9DE0EF
:1028F000207808F085FC99E0207808F097FC95E0B6
:10290000206808F0B0FC91E0206808F0B2FC8DE08F
:10291000206808F0B4FC89E0206808F0B5FC85E088
:10292000206808F0B7FC81E0206808F0B9FC7DE081
:10293000206808F0BAFC79E003F005FCC007002528
:10294000002805D003F003FC002801D0256070BDED
:1029500003F0F9FB800703D503F000FC0028F5D154
:102960002046FEF725FC61E002F04FFD5EE002F03C
:102970007CFD5BE0206802F084FD57E0206809F0F0
:1029800061F853E0206809F063F84FE0206809F02F
:1029900064F84BE02078A268616809F063F845E0CC
:1029A000207809F06AF841E0207809F072F83DE0FB
:1029B0002078616809F079F838E02078616809F0DA
:1029C00080F833E02079C1B2207809F0B5F82DE025
:1029D0002EE00FE00AE026E022E01DE002E016E033
:1029E0000CE010E0206808F0DEFF1FE0206809F02E
:1029F0001DF91BE0206809F002F917E0204607C81E
:102A000002F0A2F912E0206802F0F9F90EE0616824
:102A1000206802F024FA09E0206802F014FC05E0C6
:102A200002F029FC02E0206802F060FC206070BD2A
:102A30000120086070BD000030B5EFF31081CC07B5
:102A4000E40F72B61D4A116910230D461D4315612E
:102A5000002C00D162B61A4DC406E40E0120A0403D
:102A60002C6804420DD0C8060AD4EFF31080C007CA
:102A7000C00F72B6116999431161002800D162B686
:102A800030BD20BF40BF20BFEAE70E4908784A7832
:102A9000401CC0B2904200D008707047084A0948F4
:102AA00020BF40BF20BF4178037843701368002BDC
:102AB00002D103788B42F3D00020704700ED00E094
:102AC00000E200E01E000020FEB5F64C07466068FC
:102AD000FF213E0181552178FF2913D009010831DA
:102AE00041583246491E083209020192090A8058AB
:102AF00000F0CFF9002802D02478254615E061685F
:102B0000207888552770FEBDE64842680198115824
:102B1000280100900830105800F0BBF9002806D1B9
:102B2000E0482C46416800980D5CFF2DECD1DD4853
:102B30002101406885554754FEBD70B5D94A044609
:102B40000020157A53680AE00201561C9E5DA642D9
:102B500003D10C329A588A4204D0401CC0B285423C
:102B6000F2D8FF2070BDF8B5CE4F3E7801F001FEDF
:102B70000146FF2E71D0340125467868083540594A
:102B800000F087F902280CD97868405901F0E4FD7B
:102B900001F0EFFD01467868405900F07AF902280B
:102BA0005BD8C0494868025D0A70A11C425C002ADB
:102BB0000CD0521E425441590122D20589180902F3
:102BC000090A41513046FFF77FFF30E0631CC25CC9
:102BD0000092221D94468258002A10D001239B02A5
:102BE0009A420FD99205920D43595703DB191B02E4
:102BF0001B0A43516346C3589A1A920A09E0FF21FF
:102C0000C1540AE0435952039A181202120A42515F
:102C1000002242543046FFF757FFA2480C34416867
:102C2000C2680098095980001258009890479D4C3E
:102C30002078FF2811D0000161680830085801F0A1
:102C40008BFD01F096FD0146207862680001083096
:102C5000105800F01EF9022886D3F8BDF8B51C46BE
:102C600015460E460746FF2B03D38FA1D42009F04B
:102C700016FA8C48FF21C760456004720674017023
:102C800000224270104604E00201521C401CA9546C
:102C9000C0B2A042F8D3F8BD70B5824C0646657844
:102CA000207C854203D380A1E72009F0F8F9E06891
:102CB000A90046506078401C6070284670BDFFB582
:102CC00081B01D46FF2401F054FD764F0646797809
:102CD0000198814203D874A1F52009F0E0F9714808
:102CE0000021037A406810E00A019446521C825C7D
:102CF000FF2A25D0019FBA4205D162460C3287587F
:102D0000029A97421ED0491CC9B28B42ECD8FF2CC4
:102D100018D021014A1C019B83540B460C33029AA4
:102D2000C250039B5F4F0022012B0ED00B1DC250DF
:102D300001239B029D4216D9AA05920D08D008E0F6
:102D40000C46E0E7FF2005B0F0BD0B1DC550EFE7D6
:102D50001A4653039B190E461B0208361B0AAA1A71
:102D60008351920A09E0002D00D101256B039B19C4
:102D70001D022D0A0B460833C550891C42543D469E
:102D80003E782046FFF7A0FE2878B04214D000011C
:102D900069680830085801F0DFFC01F0EAFC297886
:102DA0006A680901083152580146104600F071F86E
:102DB000022801D2FFF7D7FE0198C4E770B50C4690
:102DC000054601F0D6FC064621462846FFF7B5FE2B
:102DD000FF2817D0334D0401204669680830085891
:102DE000314600F056F80121090340186968A41C17
:102DF000095D400B002901D089020818002800D184
:102E0000012070BD002070BDF3B581B00746029966
:102E1000FFF793FE0246FF282AD0224E35787168CC
:102E20002846044604E0944205D025462301CC5CA4
:102E3000FF2CF8D11CE0FF2C1AD0A5421CD10001B8
:102E4000085C3070FF2815D000010830085801F0E8
:102E500083FC01F08EFC0146307872680001083076
:102E6000105800F016F8022806D2FFF77CFE03E0A7
:102E70000020FEBD01F078FC38460299FFF79EFF66
:102E800022017168FF23541C0B558A5C2B01CA5424
:102E9000FEBD401A00020121000AC905884200D97E
:102EA00000207047340400207372635C736F635FAB
:102EB00074696D65722E630001203E49400608600A
:102EC0003D4908603D490A68FF231B029A4383126B
:102ED0001A430A60374980390860704710B50246C6
:102EE0000420374904E0C3005B181B79002B0AD08B
:102EF0000346401EC0B2002BF5D132A1482009F094
:102F0000CEF8FF2010BDC300CA50002259184A71E4
:102F10008A7101220A7110BD294A0021C00080185F
:102F20000171704710B50446042803D325A157202A
:102F300009F0B5F82248E1000C182079012803D0E7
:102F400020A1582009F0ABF86079A179401CC0B2EB
:102F5000814200D06071012016494006803108602E
:102F600010BD70B515480068800B022803D015A16C
:102F7000722009F094F8124D184C03262078C100F5
:102F800048190279012A07D1427983799A4203D0FC
:102F900042798271685880472078401CC0B2207006
:102FA000042801D3002020703046761EF6B2002897
:102FB000E4D170BD80E100E080E200E018E400E0D0
:102FC000480400207372635C736F635F7369676E9C
:102FD000616C6C696E672E630000000024000020A5
:102FE0007047704770477047704770477047704729
:102FF000704710B509F084F810BD000014050040BA
:1030000010FFFFFFDBE5B15100D000005700FFFFCC
:10301000F8B5FE4C207BE17A88421AD00126FC4D9F
:103020000027E07A215C14200A4642435019037CB1
:10303000052B0FD0062B1BD0072B28D0437C012B50
:1030400033D0F4A1F64809F02AF8207BE17A8842CF
:10305000E7D1F8BD0674E07A0A2807D0E07A401C70
:10306000E072491CC8B2AA5802210CE00020F7E720
:103070000674E07A0A2808D0E07A401CE072491C05
:10308000C8B2AA5803219047DFE70020F6E706748C
:10309000E07A0A2807D0E07A401CE072491CC8B2E6
:1030A000AA580821EFE70020F7E74774E07A0A28DA
:1030B00007D0E07A401CE072491CC8B2AA58072128
:1030C000E1E70020F7E770B5D64D06206872D648D4
:1030D00000244477047738300473C472D34808F06E
:1030E000FBFAD3480475EC72D249601E88606C719B
:1030F000AC70EC702C716C70CF480221047044707D
:10310000CE480470047528300470491EFAD101209D
:10311000FFF7F6F90020FFF7F3F90120A871FFF798
:10312000CBFEC748FFF7DAFEC64C2070C648FFF753
:10313000D5FE6070FFF788F970BD10B5FFF7AFF9E5
:10314000C04C2078FFF7E8FE6078FFF7E5FEB54C4D
:10315000207A002805D008F0FCF802F06CF9002075
:10316000207210BD70B5AF4CA079002804D0A9A181
:10317000B64808F094FF70BDE07A002804D113200F
:10318000A4A1400108F08BFF0126A6710025E5727D
:10319000607A0421142250439D4A80180174A54886
:1031A0008168491C04D0691E81600120FFF7A8F9DD
:1031B0000020FFF7A5F9FFF789F908F0AFFCFFF74A
:1031C0008EFAA348056005600120A249C00308608B
:1031D000FFF704FB98480078022804D0032804D1A4
:1031E000E078002801D0A67000E0A570FFF763FA30
:1031F00070BD034686490520142242435218203AE6
:10320000127F002A04D0401E0006000EF4D1704741
:103210001422424351180A46403AD362012220390F
:103220000A777047012805D0032805D1002903D16A
:10323000002070470029FBD010B47A4C0023637043
:103240007D4A002890700CD002280AD007291AD293
:103250000B007B441B79DB189F441505070D0F11EC
:103260001300D37003E01B2000E03A20D07001204F
:10327000607010BC70475820F8E77720F6E796207A
:10328000F4E7B520F2E710BC0020704710B56A489B
:103290004078FFF72BFA80B210BD411E1422504334
:1032A00010B55B4A8418203C042902D8207F0028EE
:1032B00003D158A1684808F0F2FE207F012803D00E
:1032C00054A1664808F0EBFE0020207710BD70B5D1
:1032D000554C607F217F884201D1012500E0002507
:1032E000FFF79DF9FFF702FA617F227F914201D13A
:1032F000012100E00021A942EBD170BDF7B50646DF
:10330000481E84468EB0C0B2142202905043404AF8
:103310008018051D0690007C07282AD13B4F00220B
:10332000F87A3B7B834221D03C5C029B9C4201D1DA
:10333000012201E0002A04D00A2811D0431CFB5CC2
:103340003B540A280ED0401C3B7BC0B28342EBD1D9
:10335000002A0BD0387B002806D0387B401E04E0C2
:103360000023ECE70020EFE70A20387306980122DB
:10337000027460462B4C04280FD814204143244883
:1033800008182038007F002807D00698007C012804
:1033900007D01098807A012807D01EA1304808F085
:1033A0007EFE1098807A01286ED10698184A007C1B
:1033B000022817D0154C207B0A2871D0207BE17A97
:1033C000401C884204D1C92012A1800008F067FE89
:1033D000069901204874217B02986054207B0A28BA
:1033E00062D063E0607A029B0146984206D00146B3
:1033F000142778438018807C9842F8D1637A8342FE
:1034000035D1617A1423594389182BE090030020A9
:10341000A00300207372635C72656D2E6300000070
:10342000D5050000240400205803002030040020AB
:10343000780300200404002013000020B0030020C3
:10344000672B000011000020113000007F020000F7
:1034500000F5004080E200E0CD020000CE02000056
:1034600017030000897C61720121A17207E0142317
:1034700043439B18142779439B7C89188B7414232E
:1034800006215843801881741098007A06281DD2AE
:1034900003007B441B79DB189F440C161412100E9A
:1034A000E07A00288FD093E7002001E0207B401CC9
:1034B0002073B8E000210FE0B4210DE073210BE090
:1034C000322109E00A2107E0082105E0FF20FE493A
:1034D000E23008F0E4FD0021019110980068401AE4
:1034E00028601099097A002912D00221401A01029D
:1034F000090A296010980268406810180002000A42
:1035000068601098807A0228109803D0007B74E0DD
:103510000421EBE7007A002813D00222019810184A
:10352000844610984268604608301718E748019AA8
:103530004078904202D9E278002A04D03846083018
:1035400005E00422EAE7019A801AC0190830627A7D
:10355000062A1CD0627A14235A43DD4BD2185268D3
:10356000914214D0DB4B0793617A14225143D84A1D
:1035700089184A688968921B891B12020902120A7B
:10358000090A90423AD89A4238D8994236D8301827
:10359000C01B0002000A286010996044CE4AC96826
:1035A0000002000A9446421A01239B0507929A42A0
:1035B00001D2104614E00A1A08929A4201D20798E2
:1035C0000EE0079A6346624503D9591A0818401C51
:1035D00006E0089A624506D9181A4018401C404275
:1035E00000285FDC03E0B849BC4808F058FD2868B3
:1035F000C0190002000A6860002028726868082765
:1036000008300002000A68601098407AA87210988A
:10361000007A687203280ED200280CD008F074FBE0
:10362000002803D007E0002011B0F0BD01983A2136
:103630000F1A32200190A5490878012801D00328EB
:1036400009D148780199884205D9E178002902D149
:103650000199401AC71928689E4A801B84460102B6
:103660006868090A801B03021B0A8F421AD8174692
:10367000914217D8BB4215D8617A062916D0677ACD
:1036800061460622039201923A4614235A43904B14
:10369000D21893689B1B8B4216D80397977C062FF2
:1036A000F2D173E0029801F058F9BCE706980222C3
:1036B00002990274627A062A00D0627A8274617278
:1036C0000120A07211B0F0BD062F5FD00022394654
:1036D000944614227E4B4A43D21853689B1B834264
:1036E00025D2917BAB7A99421BD806980521029D81
:1036F0007B4C0174207B0A280FD0207BE17A401C90
:10370000884203D17049774808F0C9FC207B2554D2
:10371000207B0A2800D0C9E6C6E6E07A0028F1D06E
:10372000F4E701218C46917C0629D2D102E0604663
:1037300000282AD03D46019114202A46424364487D
:103740000621161831741038007B0A28644816D0F8
:10375000017BC07A491C814203D163A1654808F00E
:103760009EFC5F48017B4554017B0A290BD0017BFD
:10377000491C0173B57C0198A842DDD106E0C07AEE
:103780000028EAD0EDE70021F3E70197069802212F
:1037900001744F4D607AB84207D106990198887438
:1037A000029860720120A07221E00398062F0FD0CA
:1037B000062803D14CA1504808F071FC039814224C
:1037C00050434019029981740699019888740EE05B
:1037D000062803D144A1494808F061FC039814224B
:1037E000504340190299817406990620887401207B
:1037F00011B0F0BD70B50D46064641490024204683
:10380000891BA04103D238A13E4808F048FC3E493C
:103810000020491BA04103D233A13C4808F03FFCE3
:103820003B4A70190021821A8C4101D33949401852
:1038300070BDF8B5401EC0B2142148432449451854
:10384000687B062813D203007B441B79DB189F4456
:10385000020C0A080604002066E0B42010E0732081
:103860000EE032200CE00A200AE0082008E0FF20E9
:103870001DA1E23008F013FC697B0020002953D021
:10388000022140186968002440180C210002695682
:10389000000A00294ADBFEF729FF194A06460C27D1
:1038A000EF570021101AA14103D20FA1154808F0CB
:1038B000F6FB15490020C91BA04103D20AA11348F9
:1038C00008F0EDFBF01927E014340000130000208D
:1038D000A0030020FFFF3F00FFFFFF0014070000D0
:1038E00090030020090200007372635C72656D2E04
:1038F00063000000C7030000DF030000E5030000D1
:10390000FF7F841EF50300000020A107F6030000DE
:103910000080841E00807BE1F74A0021821A8C41DE
:1039200001D3F6494018F8BD0421AAE7FEF7DEFEF0
:103930000C21695600224018F149091AA241F2D21D
:103940004042F8BDF0B5064683B0EE480190457A96
:10395000029534687068001B0702EB483F0A001BA1
:103960000090062D2DD0142029464143E74801221E
:10397000081884464168E44892058646081B904230
:1039800010D3631A93420DD302467046724503D991
:1039900000984018401C05E073450ED9411A0819DB
:1039A000401C404200280CDA60460295857C019854
:1039B000C0790028D5D003B0F0BDD549D54808F06E
:1039C0006EFB0298854226D014214843CF4901233B
:1039D000401802908068CC499B058C46011B8646A6
:1039E000994210D3221A9A420DD36346614503D9F6
:1039F00000997144491C06E0194662452DD9091AFF
:103A00000819401C4142002905DD0298B17A807BEB
:103A1000814200D37446062D15D0BC49142045437D
:103A200068184268121B1202120ABA420BD2B27A0A
:103A3000837B9A4200D38468857C0198C0790028F2
:103A4000B9D1062DEAD13068A042B4D0E019000205
:103A5000000A3460706003B0F0BDAD49AD4808F0B5
:103A60001EFBD8E7F0B5AC490446486885B0C005F0
:103A7000C00D1BD0103840B200280BDA0207120F1D
:103A8000083A920892005118C9698007C00EC140D7
:103A9000880908E08108A14A890089180968800717
:103AA000C00EC14088090006000E08D0002620780C
:103AB000002806D0012804D0002005B0F0BD012662
:103AC000F5E72079062813D203007B441B79DB1825
:103AD0009F44020C0A080604002018E0B42010E0FD
:103AE00073200EE032200CE00A200AE0082008E0F3
:103AF000FF208749E23008F0D2FA2179002000291E
:103B000005D0022147187F4D002E02D003E004218A
:103B1000F8E70020E87102AA6946A068FEF7F2FD06
:103B2000694608228A56E06801A98018C01C012253
:103B30001F2801DA019209E003AAFEF7E3FD6846B7
:103B4000007B002802D00198401C01900099019848
:103B5000401808300002000A0190C81B0002000A49
:103B6000009060796946887200980390FEF757FDCF
:103B7000009A019B121A181A694912020002120ACD
:103B8000000A8A4210D888420ED86846FFF7DAFE4B
:103B900000990398814205D0C8190002000AFEF777
:103BA000A5FDA060012000E00020E979002984D073
:103BB000002EAED005B0F0BDF0B505468FB0594827
:103BC0000C460B9007F090FD4E4E574F00280BD03F
:103BD0005648007D002803D055A1584808F05FFAE8
:103BE000207801287ED061E1787F0A280CD0787F88
:103BF000397F401C884203D14DA1514808F04FFA4B
:103C00002078012804D011E0387F0028F4D0F7E7AD
:103C10004C48401920380090C07F002803D044A1B0
:103C2000494808F03CFA00990120C877787F294676
:103C30001422464D5043401901742078022821D0A7
:103C4000787F142148434519207928726079687279
:103C50002A460C322946A068FEF754FD0C2028564F
:103C60000F2804DD1F3828732868401C28600C20AA
:103C70002856E268291D1018C01C01911F2869DA16
:103C80000120F6E024494868C005C00D1FD0103857
:103C900040B200280BDA0207120F083A920892008D
:103CA0005118C9698007C00EC140880908E0810821
:103CB0001A4A8900891809688007C00EC14088091E
:103CC0000006000E03D11AA1214808F0E8F9787F18
:103CD0001421484345190021E0686A460491117097
:103CE00004A900E0D4E0FEF70DFD6A46002010565E
:103CF0000F2830DD01202FE00080841E00807BE152
:103D0000FF7F841E24040020FFFFFF00A00300208B
:103D1000E83800001407000000ED00E000E400E0D7
:103D2000FFFF3F00300400205803002078030020EC
:103D30007372635C72656D2E6300000017050000EE
:103D4000F504000017000020FA040000980200208B
:103D50000605000082E00020049940180790022028
:103D6000A8722079287260796872A068291DC01C29
:103D700004911F2801DA012009E0FEF7C3FC684620
:103D80000078002804D0049804990068401C08605A
:103D9000287A062813D203007B441B79DB189F4442
:103DA000020C0A08060400200FE0B4200DE0732086
:103DB0000BE0322009E00A2007E0082005E0FF20A0
:103DC000FD49E23008F06BF900202179002943D049
:103DD0000221401804906968083008180799089073
:103DE00009180498081A0C900020F071FEF717FCCF
:103DF00004462860079820180002000AE860707ADC
:103E0000062825D0717A14204143EC4808184068F0
:103E10000899019040180002000A0290687A6946E9
:103E2000887301A8FFF78EFD0199029A091B121BE6
:103E300009021202E24B090A120A0C98994207D8A9
:103E4000824205D80199049808180002000A2860E7
:103E5000F0790028C8D10FE00421BAE704AAFEF7E0
:103E600051FC6846007C002804D001980199006844
:103E7000401C08602078A872787F0A2806D0787FD6
:103E8000401C78770B9807F047FC4BE00020F8E7E0
:103E9000CC48401920380090C07F002803D0CAA128
:103EA000CC4808F0FCF800990120C877CA4805748E
:103EB0002078022803D1C4A1C84808F0F0F8C64D04
:103EC00020792872607968722A460C322946A068E7
:103ED000FEF718FC0C2028560F2804DD1F38287325
:103EE0002868401C28600C216956281DE268019052
:103EF0005018C01C1F2803DA0199012008600CE04B
:103F000004AA0199FEF7FEFB6846007C002804D055
:103F1000019801990068401C08602078A872AE4999
:103F200001200875797F387F814223D0747A062C6E
:103F300022D0FEF774FB14214C43A0496218117C77
:103F4000042917D0032915D0536892681B1A101A38
:103F50001B0200029A491B0A000A082B0AD30A46D0
:103F60008B4207D8904205D8787F397F884201D0AC
:103F7000FEF7A1FB0FB0F0BD787F397F8842F7D103
:103F80000FB0F0BD10B50020FEF7A7FA10BD10B5B8
:103F90000120FEF7A2FA10BDF1B5009802286ED0FC
:103FA0008F4C607A062803D187A18E4808F077F8F5
:103FB0000026A6710125E572607A032114227F4F45
:103FC0005043C0190174FEF77BFB0098002809D00C
:103FD000012827D0022852D0032878D0B5207AA112
:103FE000C0003FE08048007F002803D076A17F48D2
:103FF00008F055F865717C4D00202E60FEF780FAC0
:10400000A968481C04D0012300221846FEF7AEFA26
:10401000607A617A401CC0B2142251437A5801215F
:104020009047F8BD0120FEF76BFA607900280DD0AB
:104030006D488068401C09D0607A617A401CC0B22B
:10404000142251437A5806219047F8BD6648007FF4
:1040500001280AD0022813D0032825D0042837D0FD
:1040600059A1634808F01BF8F8BD2079002803D057
:104070002671FEF72AFBE5705B480677F8BD43E042
:10408000207A002804D107F045F901F0ABF9257238
:10409000607A617A401CC0B2142251437A580021E0
:1040A000904751480677F8BD4F4F0123397B786818
:1040B0000022411A1846FEF759FA2079002803D049
:1040C0002671FEF702FBE57002203877F8BD20E08C
:1040D000454E217870680123411A00221846FEF7E8
:1040E00045FA207A002804D107F014F901F07AF992
:1040F0002572607A617A401CC0B2142251437A580A
:10410000002190473577F8BD3A480078FEF70AFF5E
:10411000F8BD607A617A401CC0B2142251437A58CB
:1041200005219047F8BD10B52D4C607A062803D1C3
:1041300025A1314807F0B3FF607A617A401CC0B214
:10414000142251431D4A52580421904710BDF0B526
:1041500083B006200290FEF762FA214C0090617A4B
:1041600026480190062920D0617A14204143134843
:104170000918097C042918D0617A142251430818BF
:10418000007C03287DD00198009E02684068921B45
:10419000801B0B4912020002120A000A0B46082A71
:1041A0006FD39A426DD888426BD80F488068401C04
:1041B0002AD005A1124825E0303D0000A0030020D0
:1041C000FFFF3F00170000207372635C72656D2E65
:1041D000630000001E050000780300202405000095
:1041E000240400205505000004040020610500009F
:1041F0009C05000011000020AF0500001404002001
:10420000EB05000007F04BFF00206071607A062884
:1042100007D16078002804D0FE48C17841708178C9
:104220000170607A062815D0617A14204143FA485B
:104230000918097C04290DD1617A0291627A012161
:1042400014235A4312181174627A5A431018807C4E
:104250006072A172F14D687F297FF14F884233D09F
:10426000F04E287F142148438019007CC05D01284E
:10427000287F07D048438019007CC05D02282FD0DA
:1042800044E002E2142148438019807A01280AD0D0
:10429000297F0220142251438919097CC855287F9F
:1042A0000A2808D009E0297F0020142251438919E7
:1042B000097CC8552AE0002001E0287F401C2877AF
:1042C000687F297F8842CCD1D74D287D00284CD0EB
:1042D000287CC15D012928D0C05D022830D03AE099
:1042E000287F142148438019807A012803D0CFA168
:1042F000D14807F0D4FE297F0020142251438919A8
:104300008872297F51438919097CC855287F142157
:1043100048438219287F48438019017C0098FEF7A2
:10432000EDFF287F0A28C8D1C5E7A97A012904D062
:104330000221C155002028750DE00021C1550AE079
:10434000A87A012803D0B9A1BC4807F0A8FE002034
:10435000A872297CC855287D002806D0297CB24A3D
:104360000098FEF7CBFF00202875029806281ED083
:1043700014214843A8494018017C012917D107217D
:10438000AF4D0174287B0A283CD0287BE97A401C79
:10439000884203D1A5A1AB4807F081FE297B029892
:1043A0006854287B0A2831D0287B401C2873607A07
:1043B00006287DD0A07A00287BD00020A072617AE8
:1043C000142041439448A04B0A18566891681D4632
:1043D000D2687C35DE67AA6069609C4D697E0029E1
:1043E00016D00226617A14228B4851430818407B6C
:1043F00006281BD203007B441B79DB189F440A1458
:1044000012100E0CE87A0028C4D0C7E70020CDE7D0
:104410000426E7E700200FE0B4200DE073200BE056
:10442000322009E00A2007E0082005E0FF207FA1F4
:10443000E23007F034FE0020C1B22973687E022802
:1044400001D0012810D1286942180098101A0002E2
:10445000000A3A2808D903206876323A1002000A86
:104460002861322028730AE0322908D2207A0028F5
:104470000ED106F04FFF00F0B5FF012007E0207AD3
:10448000002805D006F065FF00F0D5FF002020725F
:1044900060490822487820700978012901D0032951
:1044A00009D101212171297B884204D9421A01E0F6
:1044B00092E0A2E00832A378002B00D0921C217970
:1044C000002901D1002B5DD09446614A00990092E9
:1044D000019A176852687F1A511A3F0209023F0A6F
:1044E000090ABC4538D85A4A974235D8009A9142B1
:1044F00032D8297B884214D92B69421A9A1A12029F
:10450000120A101880190002000A2A616860002946
:1045100005D0032028770006000E3ED14CE0012094
:10452000F8E781420BD92A69511889190902090A49
:104530006960002801D00420ECE70220EAE7002BA4
:1045400003D13AA1434807F0AAFD28698019000267
:10455000000A6860002013E000202071A070297B11
:10456000002908D02869401880190002000A6860F4
:104570000220287711E0296989190902090A69606E
:10458000287719E0287B00280FD02969081880199E
:104590000002000A68600220287728690123811937
:1045A00000221846FDF7E2FF09E0286980190002A1
:1045B000000A6860002028770120FDF7A1FF617ADA
:1045C0001420414314480C2208188256012300206D
:1045D0006968FDF7CBFF10E00120FDF791FF002097
:1045E000FDF78EFFFDF772FF207A002805D006F058
:1045F000B0FE00F020FF00202072A078002804D038
:10460000FEF763F80020E070A0706078002827D0E3
:10461000004821E013000020A003002058030020E0
:104620001600002098020020780300207372635C5B
:1046300072656D2E630000000D0600002906000063
:10464000900300203B060000980300200404002093
:10465000FFFF3F008D060000C17841708178017036
:104660002079002806D00020CE49E0700978002982
:1046700000D12071CC48017BC07A814203D0CB4865
:104680004078FEF74FFC0120E07103B0F0BDF0B5BB
:10469000C74C0746607A83B0062804D16F20C5A1B5
:1046A000000107F0FCFC607A1421C54E48438019D4
:1046B000007C032803D0BFA1C24807F0F0FCC24D24
:1046C000A868401C03D0BBA1C04807F0E8FC607A92
:1046D0001421484381190C20085600216A46009194
:1046E0001171C01901AA6946FEF70CF86A46042048
:1046F00010560F2801DD012000E00020009940182D
:10470000696840180102090AA9606079002804D08C
:10471000012300221846FDF729FF03B0F0BD70B554
:10472000AC4CAB4A0B1AA34214D3451AA54211D381
:10473000934203D9101A43185B1C0BE0954204D92D
:10474000511A0818401C434204E09AA1A24807F0FD
:10475000A6FC0023184670BD10B5014601230022B7
:104760000220FDF703FF10BD10B50220FDF7C8FEC3
:1047700010BD10B5FDF753FF10BDF0B58C4D0446CC
:10478000E87A83B0002803D18AA1944807F087FC17
:10479000642C4DD3924A00210846121B884147D30E
:1047A0009048417F007F814242D18F48007D0028A0
:1047B0003ED1687A1421824F4843834EC519306830
:1047C00001AA00196946FDF79DFF694604200856B5
:1047D000002802DD0098401C0090A96800986B68D2
:1047E0000A18D21A1202814B120A9A4220D8AA7CC5
:1047F000062A08D014235A43D2195268511A0902C2
:10480000090A814214D3B068401C05D00120FDF78D
:1048100077FE0020C043B060306800193060A8689F
:10482000009940180002000A7061012003B0F0BD39
:10483000002003B0F0BDF8B50646401EC4B21420F7
:104840005F4960434518287C002804D1772059A18E
:10485000000107F024FC6348017F407F81420CD0B7
:10486000634A14234B439B181B7CB3420CD00A2988
:104870000CD0491CC9B28142F3D15B48017D0029AB
:1048800061D0007CB0425ED10020F8BD0021F1E78C
:10489000052903D0062901D0072928D1012129742F
:1048A000C17A0023027B8A4221D00246565CA6428E
:1048B00001D1012301E0002B04D00A2911D04E1CA4
:1048C000965D56540A290ED0491C167BC9B28E42F9
:1048D000ECD1002B0BD0117B002906D0117B491E97
:1048E00004E00026ECE70021EFE70A211173697C60
:1048F00000292AD06F74C17A0023027B8A4224D017
:10490000425CA24201D1012301E0002B04D00A291C
:1049100012D04A1C825C42540A290FD0491C027BE7
:10492000C9B28A42ECD1002B0FD0027B0146002A8B
:1049300006D00A7B521E04E00022EBE70021EEE7DE
:104940000A220A7301E018480027297C01299FD117
:104950006A7C002A9CD10120F8BD70B50546142060
:10496000174A0521684380180F4C0174207B0A28E0
:1049700011D0207BE17A401C884203D10DA11D4853
:1049800007F08DFB207B2554207B0A2807D0207B55
:10499000401C207370BDE07A0028EFD0F2E70020C1
:1049A000F7E7000013000020900300201100002012
:1049B000240400207372635C72656D2E6300000036
:1049C000A0030020F106000004040020F20600000D
:1049D000FF7F841E0020A10714070000330700009A
:1049E000FF1FA1075803002078030020FFFF3F00AE
:1049F0009802002009020000F8B50446800700254F
:104A00000126002804DA5A48C563C663022084439D
:104A1000E00404D55748C563C6638014844360002E
:104A200003D55548456080058443E00504D55348C7
:104A3000C563C66380158443A00404D55048C5638C
:104A4000C6634014844360042104C00FC90F884228
:104A500003D04CA1612007F022FB2004800F0AD074
:104A60004D49CD634D48C563C563CE63C663C66318
:104A700003208003844320050AD5494FFD632F207E
:104A8000FCF7B4FBFE632F20FCF7B0FBF814844363
:104A9000002C03DA07F022F864006408414804425D
:104AA00003D038A1902007F0FAFAF8BDF0B5002144
:104AB0000A46FF230446CC40E4072AD04CB2E6065F
:104AC000F60E0125B540384E3560384E3560002C65
:104AD00011DA25072D0F083DAE08354DB6007719C0
:104AE000FD69A407E60E1C46B440A5431446B44035
:104AF0002543FD610DE0A6082E4DB60076193568F8
:104B0000A407E70E1C46BC40A5431446BC40254301
:104B10003560491C2029CDD3F0BD70B5264C0D461B
:104B20002060FFF769FF2068FFF7C0FF284600F00C
:104B300034FD06F023FF06F07EFC06F0CFFF06F002
:104B4000D2FBFEF7B9F900F039F870BD10B51A4C78
:104B50002068FFF751FF2068FFF7A8FF06F0BEFFAF
:104B600000F0A0FD0020206010BD134800687047D1
:104B7000C01F0040C0CF004000E50140C08F004092
:104B8000C0DF00407372635C736F635F636F6E6658
:104B900069672E6300000000C0EF0040C0FF0040C6
:104BA000C0BF0040FEFF0FFC80E100E080E200E0BB
:104BB00000ED00E000E400E020000020B348002108
:104BC00001708170704770B5B14D01236B60B14BBE
:104BD0001C68002CFCD0002407E00E6806601E68EC
:104BE000002EFCD0001D091D641C9442F5D300204A
:104BF000686018680028FCD070BD70B5A34C0D46E5
:104C00006178884203D0A4A16D2007F048FA2B00F8
:104C100007F051FB095006252550505050475000D1
:104C20002078022803D09CA1712007F038FA0320D5
:104C30002070A078022802D0012804D008E0A068E3
:104C400007F040F804E02269E168A068FFF7BBFFC5
:104C50000020A070FEF786FA0420207070BDFEF7D9
:104C600036FB01466068FFF75AFD054620780228AA
:104C700003D089A1852007F012FA7D22D2008A494B
:104C80008A48954206D8401BC86087496078FEF77D
:104C900093FF70BD854202D802224A71F3E70320D8
:104CA00003E0A0780028FAD1022006F0EBFF00F024
:104CB000E4F870BD78A1AE2007F0F1F970BD70B5D1
:104CC0000546FEF704FB714C60602078012803D094
:104CD00071A1B52007F0E3F97349022008700022A2
:104CE0000A718D6003224A71704ACA602070607830
:104CF000FEF762FF70BD10B5644CA078002802D1A9
:104D00002078002801D0112010BD6948FEF771FA03
:104D100060706078002803D001202070002010BD52
:104D2000032010BD10B50124020B64040121614B66
:104D3000A04202D29140186802E0203A586891409F
:104D4000084000D0012010BDF8B50E469100044681
:104D50000F1915463F1F009106F0C5FF009980020C
:104D60008919091FB14201D2012200E00022002D61
:104D700003D0FF2101318D4201D90920F8BD4E49F0
:104D80008C421DD3A7421BD3844201D2874203D356
:104D90004A4820187C2803D820463043800701D099
:104DA0001020F8BD8E420BD3002A09D12046FFF710
:104DB000B9FF002804D13846FFF7B4FF002801D01E
:104DC0000F20F8BD3E483F490068884205D02A467A
:104DD00031462046FFF7F7FE0FE0FFF78CFF002873
:104DE000EFD12A480121C6600561846081702846A0
:104DF000312148431430FFF762FF0020F8BD10B5A1
:104E000004462D48800A84420BD306F06CFFA04272
:104E100001D8102010BDA4022046FFF783FF002810
:104E200001D00F2010BD264826490068884203D0D3
:104E3000204606F047FF0AE0FFF75DFF0028F1D1AA
:104E400012480221846081701F48FFF738FF00205C
:104E500010BD1948010B01208840401E704700B565
:104E60000B460246FFF7F5FF104201D00F2000BDB0
:104E7000104802604360002000BD10B5034C60780C
:104E8000FEF70BFA00202070A07010BD2800002053
:104E900000E5014000E401407372635C736F635F7F
:104EA000666C6173682E630068040020888A0100C4
:104EB000FB4B00000006004000D0000080EFFFEF39
:104EC0000C000020BEBAFECA10540000F7480521AD
:104ED0008170002101704170C1708160704710B510
:104EE000F3490A78022A07D0CA681018C860C8684F
:104EF0009638FFF7CCFB10BD8A6810188860886868
:104F0000F6E70378EB49EC4A002B02D0012B10D0D6
:104F100014E00379002B01D0012B0FD14379002B32
:104F200001D0012B0AD18368643B8B4206D2C06852
:104F300010E00379002B03D0012B01D00020704733
:104F40004379002B01D0012BF8D1C368643B8B421D
:104F5000F4D280689042F1D801207047F8B5044639
:104F60000226FFF714F80068002803D0D3A1BE2062
:104F700007F095F80127CD4D002C08D020780028A7
:104F800017D0012805D0022811D0032813D02F7183
:104F90000DE06068C82808D3FFF7EFFB002804D0B5
:104FA0006068FFF79CFF012603E0002601E000F0A7
:104FB000F7F93046F8BD28780028F8D16068FFF787
:104FC000A0FF0028E3D060680078002826D0A878E9
:104FD000042803D0B9A1F82007F061F8B44F0020ED
:104FE000387060680079012800D00020387160684E
:104FF0004079002837D00320787160688168E868BC
:10500000FEF7F8FBB8606068C0689630F86003206F
:10501000A870A749E878FEF7CFFDC8E7A4480221A9
:10502000017061680979012919D000210171616855
:105030004979002915D00321417161688968963149
:1050400081606168C968C160C068984C1434606050
:10505000FEF73DF920606F700220A870A7E70321DA
:10506000E4E70221E8E70220C6E7F8B58F4C0D46D9
:10507000E178884204D0FF2090A11A3007F00FF8A1
:1050800028468A4F002501261437030007F013F93C
:1050900009061237607B8C96C39FC300A078032853
:1050A00007D0A078022804D0FF2084A11E3006F08B
:1050B000F6FFF8BDA078032807D0A078022804D016
:1050C000FF207EA1223006F0EAFF0420A0702571A7
:1050D0002078002810D1FFF702FFE078FEF7A9FB47
:1050E000E0607D49886A7D4A024022617B4AD24362
:1050F0001040886200204FE000F052F9F8BDA0781F
:10510000032807D0A078022804D0FF206BA14530E7
:1051100006F0C5FF2078002802D000F04DF9F8BD58
:10512000A078032801D1042024E0FEF7D0F801463E
:105130003868FFF7F4FA002820DB796881421DDB2C
:10514000091A5B48C1600146E078FEF735FDF8BDFD
:10515000A078032807D0A078022804D0FF2057A108
:10516000663006F09CFF20780028D6D1A07803286E
:10517000DBD1052006F086FDA670F8BD042006F000
:1051800081FDA570F8BDA078042804D0FF204BA1B4
:10519000873006F084FF0220A1688847FFF7DEFE13
:1051A000FF260546C03642E0A078042804D0FF2040
:1051B00042A18C3006F073FF0120EDE7A0780428AF
:1051C0009AD0FF203DA1913006F069FF94E7A078C6
:1051D00004280AD06078002802D0A078022804D0E1
:1051E000FF2036A1963006F05AFF2078002894D18F
:1051F0002079002804D0062006F044FD2571BBE785
:105200006078002805D02A49E078FEF7D5FC657063
:10521000F8BD0720AEE7FF2028A1B13047E7002DF9
:105220000AD0012D06D025A1304606F038FF022D08
:10523000F5D1F8BD042000E00320A1688847FFF7FE
:105240008DFE0546F3E770B5050005D0174CA07834
:10525000052803D0112070BD102070BD2048FDF737
:10526000C8FFE070E078002803D0A5600020A0709F
:1052700070BD032070BD10B50C480178002901D025
:10528000112010BD817805290ED08178012929D0FF
:105290008178002926D0012101708178012921D04F
:1052A000807800281ED01FE00F2010BD3C00002099
:1052B000780400203D860100FF1FA1077372635C24
:1052C000736F635F726164696F5F74696D65736C3E
:1052D0006F742E6300000000000500400281008012
:1052E0006B50000000F068F8002010BDF8B5394E92
:1052F0000446B078002801D001280DD1002C0DD033
:105300002046FFF7FEFD00280AD02078324D002805
:1053100008D0B078012823D00F20F8BD1020F8BDA8
:105320000720F8BD02272F702079012814D0002013
:1053300028716079002811D003206871A068963028
:10534000A860E068E860E868224C14346060FDF70B
:10535000BEFF2060B77019E00320E9E70220ECE708
:10536000002028702079012816D00020287160794B
:10537000002813D003206871A168F068FEF73AFA9C
:10538000A860E0689630E8600320B0701249F078B9
:10539000FEF712FC0020F8BD0320E7E70220EAE751
:1053A00010B50E48816A0E4A11400A4A126911432B
:1053B0008162FDF7D7FE10BD10B5064CE078FDF711
:1053C0006CFF082006F05EFC0520A0700020207015
:1053D000607010BD3C0000207804002000050040F3
:1053E000FD7EFF7F10B5EFF31080C407E40F72B6A7
:1053F000D3484178491C41704078012801D106F01A
:105400007BFC002C00D162B610BD70B5CC4CE078AE
:1054100000280AD10125E570FFF7E4FF06F074FCCF
:10542000002804D0002006F02DFC002070BDC548E7
:1054300065714560F9E770B5EFF31080C507ED0FB2
:1054400072B6BF4C6078002803D1BFA18F2006F050
:1054500026FE6078401E60706078002801D106F05A
:105460004FFC002D00D162B670BD10B5B448C178B4
:10547000002904D000214171C170FFF7DCFF00203A
:1054800010BD10B5044606F03FFCAD49C978084090
:1054900000D001202060002010BDF8B50246A84CC5
:1054A0000026A6710420202101251027130006F0F4
:1054B00002FF0D080A0B0D0F1113151D1F212426C5
:1054C0002800257122E0022020711FE00820FBE760
:1054D00027711BE0217119E0012617E0FFF782FF19
:1054E00006F012FC0028FBD002260FE0207102E03B
:1054F0000820FBE72771A57108E02171FBE7402038
:10550000F4E7FF2090A17E3006F0C9FD06F008FC0C
:10551000002809D006F00AFCB04205D1304606F05A
:1055200008FC0028FAD023E0012292072846D56023
:105530008D4D002169608D498E61824B0221596039
:1055400090608B4802690369D243D206D217521C7D
:105550003B43036100E020BF6B68002BFBD0002AB7
:1055600002D10269BA430261764881600020686016
:10557000A07900280CD006F0C7FB054606F00CFB0E
:105580007C4A002D02D0A260E06001E0E260A060F1
:10559000002E01D100F0ADF8F8BD10B5044606F0BC
:1055A000B9FB002805D066490120C8704A78521C12
:1055B0004A702046FFF771FF10BDF8B56A4DA86824
:1055C0000027012802D1AF6006F05CFB6868012863
:1055D00000D16F6028680126594C012814D12F6032
:1055E0006079002803D0002006F04CFB677120781A
:1055F000002809D006F088FB002805D05A48C0389A
:10560000866300060661A670286901282CD12F61E7
:1056100000F068F8012080074661A079002815D0C5
:1056200006F072FB009006F0B7FA0099002901D04D
:10563000E16800E0A168411A022901DA8A1C13DC42
:105640000099002901D0E06000E0A060FFF7CAFEE9
:1056500006F05AFB002806D04348C038866300068F
:105660000661A67000E02670E868012819D100F0F4
:1056700039F800F037F800F035F8A078002804D1A8
:10568000FF2031A1053006F00AFDEF60A7702770FA
:10569000FFF7D1FE05F03BFE002802D03248C038AB
:1056A000C663F8BD10B5264CE078002801D106F09D
:1056B00027FB01208107886100F014F8A0780028FA
:1056C0000BD0294CE068002803D106F032FB0028FB
:1056D000F8D10020E06000F005F800201949C0432F
:1056E000886010BD50210846491E89B20028FAD1B1
:1056F0007047F8B51348192787601B4900200860D8
:10570000C86006F001FBBD0701240D4E002805D03E
:105710001548C03884632C61B47000E03470FFF722
:1057200061FE08484760114930798863FFF7DAFF66
:10573000AC61FFF7D7FF0C49002008616C61F8BD30
:1057400058000020000300402E2E5C2E2E5C6C6959
:1057500062735C736F635C7372635C736F635F63CC
:105760006C6F636B2E630000000100400005004079
:1057700000ED00E0FFFFFF7F8107C90E002808DA77
:105780000007000F083880082C4A80008018C06984
:1057900004E080082A4A800080180068C840800918
:1057A000704710B50D20FFF7E7FFC4B20420C043D7
:1057B000FFF7E2FFC0B2844203D022A11B2006F013
:1057C0006EFC10BD0121244A48031060234B0022C7
:1057D0001A60234A5160234A1060234A11601E490F
:1057E00080390860704701211B4A480310601E4A37
:1057F00051601A4A002111601A490860704710B5BB
:1058000016490868012804D00EA15B2006F047FC69
:1058100010BD164880680022C0B20A6005F0CDFEB7
:1058200010BD10B50D4801680029FCD0FFF7E7FF57
:1058300001200C494003086010BD000000ED00E0AD
:1058400000E400E07372635C736F635F68616C5FB8
:10585000726E672E6300000080E100E000D100401E
:1058600000D3004080E200E000D0004000D50040BE
:10587000F8B5F5490120C860F4490025CD63C86337
:10588000F349CA6AD2070DD1F24A0B6B53624B6BD4
:1058900093628B6BD362C96B1163EF49C3070968CD
:1058A00019435163ED4C6561ED4FEE4B7968CA7851
:1058B0001202D218A261A26901235B069A43A26177
:1058C000E94B03221A60E94A1561D56055601560FD
:1058D000E74AA263120796690346B3431B029B1C67
:1058E0006363E44BE3638B79E3602063E56296696D
:1058F00003469269B343904383409807800F206129
:10590000C87A0E1D002807D0CD72606A000A000216
:105910006062E069E56112E0606A000A00026062AC
:10592000707805F015FC616A08436062E069E56122
:10593000307805F00DFCE16900060843E061786805
:105940008078A060CC4910204860CC480168FF22D4
:10595000120291430160CA4902200860BA48C5603A
:10596000F8BDF8B5BD4E0746B068BD4C6568A9786E
:1059700088420ED12D1D687805F0EAFB716AC9B224
:10598000884206D1287805F0E3FBF16900068842D9
:1059900001D00020F8BDFDF79AFC009060680099E6
:1059A000C069FEF7BCFE0546642800D26425606825
:1059B000816A02694919914204D97D214902016134
:1059C0000020F8BD2846FEF7D8FE0028F9D0606810
:1059D0000099C161816A491981620846FEF757FE44
:1059E0000125002F0FD0FFF743FF01F00EF8706084
:1059F000A4484560A64AA448A4491060101D01604F
:105A0000A44940154860FF20A34901300860A34A1B
:105A100001025160A249CD606168A24A496A1160E1
:105A2000A14A00211160A1490A68120A12020A6003
:105A30009F4908609249086001F018FA0120F8BDFA
:105A4000F8B50F468649FF254868013502462032E1
:105A500000240126092F7DD23B007B441B79DB18F3
:105A60009F44043BF1F0B2EFA521EE000C4609780B
:105A7000022917D040788F4F012815D001F0C0F8C7
:105A8000FFF7F6FE00F0C3FF74494860FEF77AFAAC
:105A90007C4A391F08603A607E4845606068806AC9
:105AA000FEF7F5FD6670F8BD01F01FF9FFF7E0FEA7
:105AB00000F0ABFF69494860FEF764FA7F497E4A0F
:105AC00008603A6073484560714B6F496F4A1960CE
:105AD000191D0A6041154160E0E7614949780029D4
:105AE0001CD05F4F3978022921D06B490D606E4977
:105AF0000C606C4B476A1F60037B002B3BD0167316
:105B00000122664912044A6068490A68120A1202B0
:105B10000A6067490D605A490D6035E0504D407884
:105B200001F09CF9A878FDF7FDF92C701DE0407894
:105B300001281DD05748856061490C614C610115F1
:105B400081605E480461446100F011FB0121090499
:105B5000524800E07DE1816051484660524804604F
:105B60004D480560524805603C70FDF7FBFA15E0B2
:105B700000F01BFBEAE71473534A524B1160111DEE
:105B80000B600A1543494A604178012909D0012177
:105B90004172007AC00701D0FCF7ABFA304844707C
:105BA000F8BD02214172007A8007F5D4F6E70121A1
:105BB0003A48090481603A4846603B4804603648E8
:105BC00005603B4805600AE140780027012827D09E
:105BD00001F0D3F82F48856039490C614C610115FB
:105BE000816036480461446100F0C1FA1C480178C4
:105BF000022977D040682C21095C002969D0007BFC
:105C0000002866D001F0DBFE38437BD0002F60D047
:105C1000134847683969B86A884279D93C6179E0A4
:105C200012484168012906D1C068012803D12748DC
:105C3000006801284ED001F0A0F800F0B6FAD5E7D0
:105C4000ABE0ACE0A4E095E0000A0040C01F0040DB
:105C50008000001000170040C00000100015004038
:105C6000680000201E0001010012004000110040E9
:105C700021100000FFFF00000013004000E400E0DE
:105C800000E100E00010004004110040141000404A
:105C900058F5014000F5014080E100E0008300403C
:105CA00000800040408500404081004008E400E062
:105CB00080E200E054F501400410004050F501403E
:105CC00040F501401010004060F501400014004014
:105CD00008E02EE0012700F092FF01F04EF800F0FE
:105CE00064FA83E70122FB4912048A60FA494E6094
:105CF000FA490C60FA490D60FA490D6004706EE0D3
:105D000000E005E00120FFF72CFE002811D0F8BDCF
:105D1000081A3861396900917D214902009806F01E
:105D2000A3F87D22C0B2520200995043081A80188D
:105D30003861ED4F786820300473B878FDF7F2F8D9
:105D4000786844723C70E64805600121E148090426
:105D50004160E148C660E548B9210160DF48046060
:105D6000E3480168090A09020160DE480560E1486C
:105D70000560F8BD0D460978022901D12C70F8BDE7
:105D8000407801F06BF8A878FDF7CCF82C70F8BDDE
:105D90000D4609780229F3D1F0E70C70F8BDCF4B1E
:105DA0001F68002FFAD01C60127B002A48D00A78A6
:105DB000022A07D0007B002819D001F000FE00283D
:105DC00010D014E00122C34812048260C248466029
:105DD000C2480460C2480560C24805600C70FDF707
:105DE000C1F9F8BD0020FFF7BCFD0028F9D1BC4F78
:105DF00002203860C048006900F0BFFF00F0D5F90C
:105E0000B94E706820300473B078FDF78BF8706875
:105E10004472347001203D60AE4902044A60AE49CC
:105E2000C860B248B9210160AC480460B04801685C
:105E3000090A09020160AB480560AE480560F8BD7B
:105E40000878012800D1B2E6A8480168B93101609C
:105E5000F8BDAAA1AE4806F022F9F8BD70B5A24D72
:105E6000012668609E49022008609E490860A94991
:105E700000240A68FF231B029A430A609D490860B8
:105E8000A548AC60FDF7B5F969680870CC710E7271
:105E90004C728C72CC727D200C73400208612031F0
:105EA0000C732C706C7070BD8F484068C1790029EC
:105EB00005D010B50021C171FFF7BDFA10BD7047C4
:105EC00010B589482D224168525C002A0AD00A7810
:105ED000002A07D00278002A04D002220270027839
:105EE000002AFCD172B6C879002803D00020C871FE
:105EF000FFF7A1FA62B610BD10B57B4CA068002870
:105F000006D17EA1854806F0CAF8A068002802D014
:105F1000A1680020884710BD002807D010B5724C3A
:105F2000A0607F48FCF7DAFFA07010BD704770B525
:105F30000C46054600F06BFD2246294605F008FF99
:105F400070BDF8B5684C154600266268012756708A
:105F5000D0615176002B01D0177500E0167501F065
:105F6000FDFC002806D060687D21C900077669180D
:105F7000016205E06068032101766A4969180162DF
:105F800061684D62086A643888620E73087814315B
:105F9000FDF712FE2770F8BDF8B5534C15460126E3
:105FA0006268069F5670D0615176002B01D016753D
:105FB00001E00020107501F0D1FC002806D06068D7
:105FC0007D21C90006766918016205E06068032139
:105FD000017654496918016261684D62086A643843
:105FE00088620F7308781431FDF7E6FD2670F8BD5E
:105FF00010B53D488078FCF795FF10BD10B5FDF752
:10600000F9FB10BD10B5FDF762F910BD36494968BE
:1060100088717047344949688870704732494968C7
:106020008880704730494968C87070472E49012000
:106030004968C872704710B52B4C6068807A002898
:1060400012D1FFF7CFF9384901200860626837495B
:106050009379CB6000230B6193788B60344B0321E1
:10606000196025490860907210BD70B51E4D6868B2
:10607000807A002813D000F07AF82B4800240460BE
:106080002C4804612A490C601B4A012111610169F5
:106090000029FCD00461FFF7CEF96868847270BDF6
:1060A0002448C069002803D021488068404240B29B
:1060B000704721484068C007C00F70470A484068D1
:1060C000C17900293AD110B50121C171FFF78AF9D0
:1060D00010BD00000083004000800040408100406F
:1060E00080E100E080E200E06800002040850040A0
:1060F00008E400E000E100E0001000407372635C1F
:106100006C6F776572737461636B2E6300000000BF
:106110006103000000E400E0415A0000E2030000D7
:10612000F95E0000B80B00000012004000150040AE
:1061300040150040001100400014004070472649FF
:1061400049680872704724484068007A70472248BE
:106150004068407A012800D0002070471E484068FF
:10616000407A022801D0002070470120704710B407
:106170001A480022C2630121C1631948026019480C
:1061800002230360184C4017A06018480261184CA5
:10619000216101690029FCD00261C2604260826015
:1061A00002601448036010BC7047114901208861E7
:1061B0000E490020C8614A150F498A600F4A1061D4
:1061C00050618A158A600E4A106150610A158A6012
:1061D0000C4908614861CAE768000020C01F004000
:1061E0000012004080E100E0001300400011004078
:1061F0000010004080E200E000F5014048F5014059
:1062000040F5014050F50140FE49095CC90701D045
:10621000FD4900E0FD49085C7047FD4A0321107804
:1062200003073ED5F72318401070FA4AF54BD07992
:106230001B5CDB0701D0F44B1BE0F44B19E000289A
:1062400005D0012801D0022802D1012100E002215D
:10625000F8B5F148F14CC5792078C307ED48DB0F5C
:10626000006E002D07D0127ED200E132FFF769FEEA
:106270000DE0185CE3E79579E64AE94E128E724329
:10628000520A122D08D000250095FFF785FE2078D0
:10629000400840002070F8BD01250095FFF77CFE06
:1062A000F5E77047DB48DF49C079095C490702D54B
:1062B000D64A012111547047012A00DC0122491EEF
:1062C000401ED30703D0491C0B78401C03705210AA
:1062D00007D04B784370891C801C0B780370521ECA
:1062E000F7D17047C27B0F21521CC27304E0491ED4
:1062F000C9B2425C521C4254425C002A01D10029BE
:10630000F5D17047002A4ED0FFB5C74883B001468B
:106310001F311030154601910090102D04D9102422
