:020000040000FA
:10000000C0070000D1060000D1000000B1060000CA
:1000100000000000000000000000000000000000E0
:100020000000000000000000000000005107000078
:100030000000000000000000DB000000E500000000
:10004000EF000000F9000000030100000D010000B6
:1000500017010000210100002B0100003501000004
:100060003F01000049010000530100005D01000054
:1000700067010000710100007B01000085010000A4
:100080008F01000099010000A3010000AD010000F4
:10009000B7010000C1010000CB010000D501000044
:1000A000DF010000E9010000F3010000FD01000094
:1000B00007020000110200001B02000025020000E0
:1000C0001FB5C046C04600F0EFFA04B00FB41FBD24
:1000D00008205A49096809580847382057490968CB
:1000E000095808473C2055490968095808474020E5
:1000F0005249096809580847442050490968095875
:10010000084748204D490968095808474C204B4981
:10011000096809580847502048490968095808479C
:100120005420464909680958084758204349096836
:10013000095808475C204149096809580847602068
:100140003E4909680958084764203C49096809582C
:100150000847682039490968095808476C20374919
:100160000968095808477020344909680958084740
:100170007420324909680958084778202F490968CE
:10018000095808477C202D490968095808478020EC
:100190002A490968095808478420284909680958E4
:1001A0000847882025490968095808478C202349B1
:1001B00009680958084790202049096809580847E4
:1001C00094201E4909680958084798201B49096866
:1001D000095808479C201949096809580847A02070
:1001E0001649096809580847A4201449096809589C
:1001F0000847A8201149096809580847AC200F4949
:10020000096809580847B0200C4909680958084787
:10021000B4200A49096809580847B82007490968FD
:1002200009580847BC2005490968095808470000D3
:1002300003480449024A034B7047000000000020B5
:10024000C0070000C00700000122D84B5A6000BF61
:10025000D74A1268002AFBD0016000BFD44A126856
:10026000002AFBD00022D14B5A6000BFD04A12684E
:10027000002AFBD07047F0B505460E46174600240D
:1002800006E0A200B158A2005019FFF7DDFF641C80
:10029000BC42F6D30020F0BD0120C043C549086030
:1002A000401048607047014601229204086890425D
:1002B00001D9102070470020FCE7F0B505460C4638
:1002C0001646002706E028462168FFF7BDFF2D1DD2
:1002D000241D7F1CB742F6D3F0BD70B505460C4611
:1002E0002E460BE0304600F075F9FF2C01D80024B3
:1002F00001E0FF3C013C012080023618002CF1D1C6
:1003000070BD0146012292044868904201D909203B
:100310007047A9484069401C01D10F20F8E7002030
:10032000F6E7FEB504462068030000F037FA05043E
:100330002B4249598B00201DFFF7E3FF0546002D96
:1003400001D02846FEBDFFF7A7FF0120C00200F044
:1003500041F9042221469948FFF78DFF002801D07A
:100360000320EFE708222146944800F06DF90028A9
:1003700006D1002192480068FFF766FF00F00CF9F3
:100380000320DFE7A768E6686068019031463846D9
:10039000FFF7A3FF324638460199FFF78EFFB20000
:1003A0003846019900F050F9002800D1CAE703202F
:1003B000C8E700F0E3F9834800688349086041E03A
:1003C00060680190E668A0680090B200009901980A
:1003D00000F03AF90746002F00D1B3E70E20B1E74D
:1003E000201DFFF760FF0546002D01D02846A9E734
:1003F0006068002807D1FFF74FFF0320800200F05C
:10040000E9F800F0C9F8FFF747FF0120C00200F04B
:10041000E1F8042221466948FFF72DFF002801D0AA
:1004200003208FE708222146644800F00DF90028D8
:1004300006D1002162480068FFF706FF00F0ACF823
:1004400003207FE700BF00207CE770B505460C461F
:10045000182D04D12068FFF764FF206002E001201E
:10046000206000BF00BF70BDF0B589B05248406940
:1004700003905248806881000398081802900398FE
:10048000000B01900121090302984018401E000B47
:1004900000900124002520462946019A00F0C4F866
:1004A0000022401E91410791069001260027304608
:1004B0003946009A00F0B8F80022401E914105919B
:1004C0000490049BDB43059AD2430698184307998E
:1004D00011430791069037490698086007984860CD
:1004E00009B0F0BD70B53448446934488568466841
:1004F000AA003146204600F0A7F8002801D00020CD
:1005000070BD0120FCE72D484068002801D0012083
:1005100000E000200546FFF7E5FF002807D0FFF7C1
:10052000BBFE0320800200F055F800F035F8FFF71D
:100530009BFF002D0ED020484669204884684768FC
:1005400021463046FFF7C9FE224639463046FFF7BE
:10055000B4FE00BF00F020F810B5184844681A48EF
:100560000460204600F0DCF810BD15480068006803
:10057000401C01D100BFFEE710480068002802D0EF
:10058000042806D101E0FFF7BEFFFFF7E5FF00BF3B
:10059000FEE700BF00BFFEE7BFF34F8F0B480C49DB
:1005A000C860BFF34F8F00BFFEE7000000E50140C9
:1005B00000E40140000600400010001000080000A8
:1005C000B8070000BC070000000000200400FA0586
:1005D00000ED00E010B50146104B1A6808460223F2
:1005E0000F4C636000BF0F4B1B68002BFBD0531CEC
:1005F00004D0904202D20A4B186101E0084B986087
:1006000000BF084B1B68002BFBD00023044C636029
:1006100000BF044B1B68002BFBD010BD0010001066
:1006200000E5014000E4014010B5202A04DB01464A
:10063000203A9140002010BD914020239C1A03468F
:10064000E3401943904010BD034610B50B439B0790
:100650000FD1042A0DD308C810C9121FA342F8D025
:1006600018BA21BA884201D9012010BD0020C04328
:1006700010BD002A03D0D30703D0521C07E000208E
:1006800010BD03780C78401C491C1B1B07D1037854
:100690000C78401C491C1B1B01D1921EF1D118463D
:1006A00010BD70477047704710B500F007F810BDD7
:1006B000014B1B68DB6818470000002019481A49E5
:1006C0007047FFF7FBFFFFF7FBFC00BD20BFFDE716
:1006D0001649174C24688C420BD1164B1B68994263
:1006E0000CD1154B154A1360186810498842EDD09B
:1006F0000AE0134880F30888124B18470F4A13602A
:1007000018680A498842E1D080F308880E49884277
:1007100004DD0E48026802210A4302605B68184744
:100720000346DFE7C0070000C0070000FFFFFFFF30
:10073000000C000014100010001000000000002049
:10074000000400206B05000000200020240500406C
:100750000D48704502D1EFF3098101E0EFF3088104
:10076000886902380078182802D1C046074A104725
:10077000074A12682C3212681047000000B5054B7A
:10078000054A9B58984700BDFDFFFFFF4B04000042
:1007900000000020001000000400000030B4744687
:1007A000641E2578641CAB4204D3635D5B00E318D0
:1007B00030BC18471D46F8E7000C00000010000090
:101000009826002059AE0100ED210000BFAD01007F
:1010100000000000000000000000000000000000D0
:10102000000000000000000000000000C9AE010048
:101030000000000000000000ED210000ED21000094
:1010400035AF01003BAF0100ED210000ED210000B4
:10105000ED210000ED210000ED210000ED21000058
:1010600041AF0100ED210000ED21000047AF01007C
:10107000ED2100004DAF010053AF010059AF010059
:10108000ED210000ED210000ED210000ED21000028
:10109000ED210000ED210000ED210000ED21000018
:1010A0005FAF010065AF0100ED210000ED21000000
:1010B000ED210000ED210000ED210000ED210000F8
:1010C00000F002F819F0A9FE0CA030C80838241866
:1010D0002D18A246671EAB4654465D46AC4201D170
:1010E00019F09BFE7E460F3E0FCCB64601263342DA
:1010F00000D0FB1AA246AB4633431847CC9F0100F1
:10110000FC9F0100103A02D378C878C1FAD8520780
:1011100001D330C830C101D504680C6070470000AD
:101120000023002400250026103A01D378C1FBD803
:10113000520700D330C100D50B6070471FB5C046C1
:10114000C04619F00BFE04B00FB41FBDF0B440460A
:10115000494652465B460FB402A0013001B506482D
:10116000004700BF01BC86460FBC804689469246B8
:101170009B46F0BC70470000C11000008269024924
:101180008161024810447047911100000100000085
:1011900001B41EB400B50BF0A1F901B40198864664
:1011A00001BC01B01EBD0000401E00BF00BF00BF5B
:1011B00000BF00BF00BF00BF00BF00BF00BF00BF37
:1011C00000BFF1D17047000070B505460C461646C9
:1011D00002E00FCC0FC5103E102EFAD2082E02D31B
:1011E00003CC03C5083E042E07D301CC01C5361F2E
:1011F00003E021782970641C6D1C761EF9D270BD45
:101200008307FF22DB0E9A408907090E99400028C8
:101210000BDA0007000F0838830828489B001818CD
:10122000C36993430B43C3617047830824489B0001
:101230001B181868904308431860704710B504469F
:1012400000210120FFF7DCFF00211820FFF7D8FF65
:1012500000210B20FFF7D4FF02211920FFF7D0FF58
:1012600002210D20FFF7CCFF02210E20FFF7C8FF5F
:1012700002210F20FFF7C4FF0221C81FFFF7C0FFA4
:1012800003211620FFF7BCFF03211520FFF7B8FF4D
:10129000204600F019F8002010BD5E210180704743
:1012A00010B500F020F810BD0648704710B500F0EA
:1012B00022F810BD704770477047000000ED00E055
:1012C00000E400E003F900C370B505462D4C07208B
:1012D0002070A01CFFF7E1FF5920A080294620467E
:1012E00000F01EFC70BD10B500F023FC2549002065
:1012F000891E087010BDF8B5224E0446B61E30781F
:1013000001270D46002807D0204660380B2808D852
:10131000204600F021FF2BE0602CF9D01A4808602D
:10132000F8BD20466C38032803D8204600F055FF4E
:101330001EE0204670381F2803D8204600F059F9D7
:1013400016E0204690380F2803D8204600F0FCF81D
:101350000EE02046A0380F2803D8204600F08AF877
:1013600006E02046B0380F2804D8204600F0E9F9FE
:10137000286000E02F60602CD2D128680028CFD1EF
:101380003770F8BD1A0000200130000001202A4902
:10139000C003086029490020087003202849800202
:1013A00088607047F8B5254D04462878A04207D0DC
:1013B000002C05D0002803D022A14D2019F0F9FC03
:1013C0002878A04212D02C70032500232249AD02B8
:1013D0001B48002C25D0214E214A224F012C06D03B
:1013E000022C12D017A16E2019F0E3FCF8BD0B609F
:1013F00002230B604E6185601B4911625762091D13
:1014000091621A49D1624560F8BD0B6003230B60FD
:101410004E610121C9028160154B9362D762416020
:10142000F8BD0B600B608560F8BD10B505A1772095
:1014300019F0BFFC10BD000080E100E0200000209A
:1014400000F501407372635C68616C5F63636D5F9C
:101450006161722E6300000000F500407C010020F5
:1014600040F5014000F000400011004004F0004051
:101470002811004010B5A038030019F0BBFD0B0780
:101480000E172028313A414B525B63004B680878B5
:101490008A68194603F08AF910BD88888A6883B281
:1014A0000888194680B203F090F910BD08884C688E
:1014B000CB688A6880B2214603F08BF910BD08889A
:1014C0004B688A6880B2194603F09FF910BD88887E
:1014D0008A6883B20888194680B203F0ABF910BD60
:1014E00088888A6883B20888194680B203F0D9F9DF
:1014F00010BD08884A6880B2114603F00CFA10BD8E
:10150000088982B2888883B20888194680B203F0BD
:101510000DFA10BD08884A6880B2114603F02AFA15
:1015200010BD08894B6882B20888194680B203F062
:10153000A7FA10BD08884B688A6880B2194603F084
:10154000A3FB10BD012010BD10B59038030019F0A9
:1015500051FD09060F161D242C363F464E00888883
:101560008A6883B20888194680B204F009F810BD71
:1015700008884A6880B2114604F076F810BD0888E1
:101580004A6880B2114604F0CCF810BD08884A6859
:1015900080B2114604F01AF910BD08884B688A68B9
:1015A00080B2194604F062F910BD088982B28888B9
:1015B00083B20888194680B204F0AEF910BD0889DC
:1015C0004B6882B20888194680B204F0FAF910BD5F
:1015D00008884A6880B2114604F042FA10BD888833
:1015E00082B20888114680B204F0F9FA10BD0120D9
:1015F00010BD10B57038030019F0FCFC1A0E141859
:101600002024272E353A3F43474B52575E676F776A
:1016100080878C9195989EA14A680878114607F0BA
:10162000BDFD10BD086807F005FE10BD0C790B7BF1
:101630008A680868214607F00CFE10BD086807F0AC
:10164000A2FE10BD07F032FB10BD08884A6880B2C8
:10165000114607F0E3FF10BD0A790888114680B2F1
:1016600008F074F810BD087840B208F07DF810BD9D
:10167000088880B208F091F810BD086808F0A0F85A
:1016800010BD086801F0ACFB10BD086801F0D5FB87
:1016900010BD088982B209C9194608F0A9F810BD21
:1016A00005C9114608F0F1F810BD08884A6880B2F3
:1016B000114609F075FA10BD0C790888CB688A6864
:1016C00080B2214609F078FB10BD0B7908888A6842
:1016D00080B2194609F017FD10BD08884B688A686A
:1016E00080B2194609F08FFD10BD08884C68CB68A0
:1016F0008A6880B2214609F0EEFD10BD08884A686C
:1017000080B2114609F027FE10BD088880B208F0AB
:10171000DFF810BD088880B208F013F910BD086822
:1017200008F037F910BD07F0A5FA10BD8A6809C99D
:10173000194608F096F910BD07F085FA10BD012092
:1017400010BD10B5B02805D0B12808D0B2280BD0F4
:10175000012010BD088880B20AF006FA10BD088882
:1017600080B20AF020FA10BD08884B688A6880B2FF
:1017700019460AF029FA10BD10B5030019F03AFC19
:101780000A0609060C0C0F0F0606061207F0BAFA35
:1017900010BD09F0D1FF10BD01F00EFA10BD06F02A
:1017A00085FB10BDFAA1FE4819F003FB10BD3EB544
:1017B000FC49054603C900900191ED20800069466F
:1017C0000881F94A0F2310460A2128380AF066FFDB
:1017D0000024F6480AF080FF641CE4B20A2CF8D317
:1017E0000423012202A9F2480AF0ADFA002804D02D
:1017F000FF20E7A1123019F0DCFAEB4907200422A0
:10180000F031000204F0C5FE002804D0FF20E0A162
:10181000153019F0CEFA00211E22084604F0A6FA6F
:1018200007F081FC02222421E24801F03FFBE1485D
:1018300001222C214C3001F039FBDE490B20B0395C
:1018400001F0C4F9002804D0FF20D1A1263019F0FE
:10185000B0FA09F040FF02F043F96B46002208217C
:10186000D5A007F033FB002804D0FF20C8A12C30FE
:1018700019F09FFA284602F081FC002804D0FF20CE
:10188000C3A12E3019F095FADB218900CD4819F05B
:1018900053F9CC4801214171022181710621C171A6
:1018A000C81FC94948803EBDF0B5C748C7494088F0
:1018B000C44F95B0884207D0B879002802D00020E4
:1018C00015B0F0BD1120FBE73B2008A9087369465D
:1018D0000BA801F032FB002804D0FF20ACA1483057
:1018E00019F067FABA4E00246D4631E028191490B9
:1018F000807DC10706D0400704D460004019C0882D
:101900000AF08AF8B879002820D01498807D8007E2
:101910001CD560004019C088002206210AF099F801
:10192000002813D03C2108A8017360004019C18829
:101930006846C18569460BA801F0FFFA06000BD086
:10194000FF2093A15D3019F034FA05E0641CE4B285
:1019500068460079A042C9D83046B1E710B5994C25
:10196000A078092804D3FF2089A16E3019F021FA4C
:10197000207860214843001900210173417BF72240
:10198000C908C900C91C1140EF221140417301214F
:10199000E1700C3010BD70B50E4600211C46198058
:1019A0001546030019F026FB0723050B1711231D0D
:1019B000230022462946304609F0DCFE70BD22464F
:1019C0002946304606F0A1FF70BD22462946304622
:1019D00001F031FF70BD22462946304603F055FC28
:1019E00070BD22462946304600F074FB70BDFF20D2
:1019F00067A1CD3019F0DDF9032070BD70B5714CD1
:101A0000E078002818D02078602148430019407BF6
:101A100000254007400F01190879401E0871207801
:101A2000401CC0B22070092800D12570A078401C4D
:101A3000A0700AF0D4FFE57070BD6248C07900283C
:101A400000D08BE7704770B55E4DA86800280CD0B9
:101A5000FFF7F3FF002862D06022A968FFF7B4FB0C
:101A6000FFF7CCFF0020A860EFE76879002856D088
:101A7000FFF774FF04464F484C3001F027FA6060CE
:101A8000002804D1464842A1503019F092F960680C
:101A900001F07FFA00280DD0204606F0E7FD6078BF
:101AA000010703D5C008C000401C2BE04148616815
:101AB0004C302DE03F4861684C3001F010FAFFF7E0
:101AC000F3FE00282BD1FFF749FF0446394801F007
:101AD000FDF96060002804D1C5202DA1800019F017
:101AE00068F9606801F059FA002814D0606800882D
:101AF0006080204609F071FE6078010706D5C008B5
:101B0000C000801C6070FFF779FF9EE7294861687C
:101B100001F0E5F999E72748616801F0E0F970BD47
:101B200010B5294CA16060602A4800F091FB6070FC
:101B300010BD254900200870704770B5264E054637
:101B4000706A94B00C46401C04D1B06AC0430004D3
:101B5000000C0BD0306AC007C00F2870706A18F0F4
:101B6000FEFFB06A2071000A60713BE02B206946DD
:101B7000087009A9684601F0E0F9002804D0084877
:101B800003A17E3819F015F901202870062225E0FE
:101B90007372635C686F73745F636F72652E63004A
:101BA000A102000010B00100D00100207917000050
:101BB000C0090020901100206E5246353138323273
:101BC00000000000740D002024000020FFFF000032
:101BD00004300000471A0000800000100AA92046C7
:101BE00018F04BFF2878002803D06079C021084303
:101BF000607114B070BDF0B5FD4C0646206895B01C
:101C00000D4637460837401C08D16068401C05D196
:101C1000A068401C02D1E068401C11D02068314609
:101C200018F09DFF6068311D18F099FFA0683946D3
:101C300018F095FFE06831460C3118F090FF24E071
:101C40002B206946087009A9684601F076F900283A
:101C500004D09320E749800019F0ABF808220AA9C4
:101C6000304618F00AFF2B206946087009A968461B
:101C700001F063F9002803D0DE49DF4819F099F834
:101C800008220AA9384618F0F8FE20692E460836C0
:101C9000401C08D16069401C05D1A069401C02D1DC
:101CA000E069401C11D02069294618F058FF60698E
:101CB000291D18F054FFA069314618F050FFE06963
:101CC00029460C3118F04BFFFAE52B2468460470C6
:101CD00009A901F032F9002804D0C748C5491E30CF
:101CE00019F067F8082209AF28460AA918F0C5FEBE
:101CF0006846047009A901F020F9002804D04F209B
:101D0000BC49C00019F055F80822391D304618F0BA
:101D1000B4FED5E570B5B94C0546A068002804D0DE
:101D2000B548B449743019F044F8A56070BDB449A1
:101D30004880704710B50146B24801F0D0F8AF496D
:101D40008879401CC0B28871012803D1AC48407822
:101D500000F0A2FA10BD70B50446AB4816460D4619
:101D6000814204D1A448A349EF3019F022F8012E92
:101D700005D0A1489F49FE3019F01BF870BD6620C0
:101D8000207000202072A5810120A07370BD70B565
:101D900015460C460646FFF750FE00280CD066217B
:101DA000017046800121017221680161A188818250
:101DB0000573FFF723FE70BD1321304607F0C6FC04
:101DC00070BD9249884201D21020704702210170F3
:101DD0000020704730B58A4D0446287895B0002819
:101DE00002D0082015B030BD8948844206D30120B6
:101DF0008004844204D38548844201D21020F1E754
:101E000000F0CCFE697868680CF00EFCA868401EF3
:101E100007280BD8302269460A70887068460DF092
:101E2000DFFF002802D009A80CF0BFFD2046FFF715
:101E3000BEFC012028700020D4E7F8B504467348A2
:101E40000F46814208D3002C01D0844204D3E01C09
:101E500080088000A04201D01020F8BD674881783A
:101E6000002911D0398800914178602251430D1822
:101E7000287B0C350007000F3B4600222946FFF760
:101E80008AFD060004D015E0002038800520F8BD4A
:101E9000002C13D039880098814201D90C260DE01E
:101EA00028783B460007000F22462946FFF773FDBE
:101EB000060005D00C2E01D0002038803046F8BD39
:101EC0004E4C6078401CC0B26070092801D10020DF
:101ED0006070A078401EA07068784107490F012902
:101EE0000ED0022906D003291AD04249494818F0D9
:101EF00060FFE3E7C006E1D46868FFF71BFFDDE79A
:101F0000404869684C3000F0EAFF6079401CC0B27C
:101F100060710128D2D13A48407800F0BDF9CDE790
:101F2000E079401CE071C9E7394A10B5904208D306
:101F30000124A404354AA04201D3904201D3914226
:101F400001D2102010BD00F07AFE10BD304B10B54C
:101F5000994208D30124A4042C4BA14201D39942F5
:101F600001D39A4201D2102010BD022803D01028BC
:101F700001D0092010BD00F088FE0028FAD005200D
:101F800010BD234B10B598420CD30124A4041F4B61
:101F9000A04201D3984205D3994203D3002A03D02B
:101FA0009A4201D2102010BD00F095FE0028FAD010
:101FB000072010BD10B50446144894B0844202D2E4
:101FC000102014B010BD0F2008A9087369460BA893
:101FD00000F0B3FF0028F4D16846007A207068460C
:101FE0004089608068468089A0800020E9E7000081
:101FF00080000010901B000053020000740D0020B0
:102000002400002090110020FFFF00000028002085
:1020100000D00100E303000010B500290AD0484AAF
:10202000914202D30B68934201D2102010BD8A88DE
:10203000002A02D001F0A0FD10BD092010BD10B58E
:10204000404A94B091420DD3012292043C4B9142FC
:1020500001D3994206D3441E1E2C25D8914203D3A6
:10206000994201D21020ACE701281BD10878002446
:10207000C007C00F002803D003206946887001E024
:102080006846847038206946087009A9684600F0DF
:1020900054FF002804D0FF202BA1E73018F089FE60
:1020A00020468EE707208CE70246203A1F2AF9D8FF
:1020B00006F073FF85E7224A10B5914201D2102045
:1020C00010BD0246203A1F2A02D806F0E9FF10BDD3
:1020D000072010BDF7B505460078002700090C461B
:1020E0003E46062804D0FF2017A1863018F061FE76
:1020F000287A00280ED0012814D0FF2012A1A73082
:1021000018F057FE0298002C068001D027806680C8
:102110000020FEBD02270926002C0ED0A889A08031
:10212000A87B08E003271426002C06D02869E0606D
:10213000A88A2082287B2072E4E702980680E7E7DD
:102140000028002000D001007372635C686F737414
:102150005F636F72652E630010B56038030018F07E
:1021600049FF0A060A0F13181F252930353A086857
:10217000FFF730FE10BD05C91146FFF75EFE10BD2A
:102180000868FFF71EFE10BD05C91146FFF7CCFE1B
:1021900010BD4B6808788A681946FFF7D7FE10BD56
:1021A0008A6809C91946FFF7ECFE10BD0868FFF7F9
:1021B00001FF10BD08884A6880B21146FFF72CFF66
:1021C00010BD05C91146FFF73AFF10BD05C91146FC
:1021D000FFF771FF10BD012010BD01207047000006
:1021E0000E4A12680C498A420AD118470B4A1268F3
:1021F000094B9A4204D101B50AF067F903BC8E4637
:10220000074909680958084706480749054A064B1F
:102210007047000000000000BEBAFECA6000002047
:1022200004000020982600209826002001203F4925
:10223000400608603E4908603E490A68FF231B02C9
:102240009A4383121A430A603849803908607047FC
:1022500010B502460420384904E0C3005B181B791E
:10226000002B0AD00346401EC0B2002BF5D133A18B
:10227000432018F09EFDFF2010BDC300CA5000226D
:1022800059184A718A7101220A7110BD2A4A002127
:10229000C00080180171704710B50446042803D3AC
:1022A00026A1522018F085FD2348E1000C18207962
:1022B000012803D021A1532018F07BFD6079A1797A
:1022C000401CC0B2814200D0607101201749400615
:1022D0008031086010BD70B5164800680004800F9A
:1022E000022803D015A1692018F063FD124E194C85
:1022F00003252078C10088190279012A07D1427983
:1023000083799A4203D0427982717058804720784D
:10231000401CC0B22070042801D300202070284641
:102320006D1EEDB20028E4D170BD000080E100E038
:1023300080E200E018E400E00C1200207372635C9D
:10234000736F635F7369676E616C6C696E672E6330
:10235000000000003000002010B5EFF31080C4072B
:10236000E40F72B6DA484178491C41704078012880
:1023700001D10AF059FB002C00D162B610BD70B536
:10238000D34CE07800280AD10125E570FFF7E4FF7F
:102390000AF052FB002804D000200AF025FB0020A0
:1023A00070BDCC4865714560F9E770B5EFF31080FA
:1023B000C507ED0F72B6C64C6078002803D1C6A1E0
:1023C0008F2018F0F6FC6078401E6070607800285E
:1023D00001D10AF02DFB002D00D162B670BD10B501
:1023E000BB48C178002904D000214171C170FFF7BA
:1023F000DCFF002010BD10B504460AF01DFBB449F7
:10240000C978084000D001202060002010BDF8B538
:102410000246AF4C0026A671082004210125102792
:10242000130018F0E7FD0D080A0C0E101214161E0A
:10243000262123252800257122E0022001E02171B8
:102440001EE020711CE027711AE02020F9E7012628
:1024500016E0FFF781FF0AF0EFFA0028FBD0022612
:102460000EE02171A5710BE02771FBE7202000E051
:1024700040202071F6E7FF2097A17E3018F099FCEC
:102480000AF0E6FA002809D00AF0E8FAB04205D1CD
:1024900030460AF0E6FA0028FAD02CE00120800746
:1024A000C560914900224A60904A9661894B022298
:1024B0005A6085608E480269D243D206D5170269F8
:1024C0006D1C10231A4302610F4600E020BF78689C
:1024D0000028FBD030460AF0C4FA0028FAD0002DBC
:1024E00004D18348026910218A430261794902209C
:1024F000886000207860A07900280CD00AF09CFA4F
:1025000005460AF0F9F97B4A002D02D0A260E0608E
:1025100001E0E260A060002E01D100F0B1F8F8BD4A
:1025200010B504460AF08EFA002805D0684901204B
:10253000C8704A78521C4A702046FFF768FF10BDE9
:10254000F8B5694FB8680025012802D1BD600AF0CE
:102550004BFA7868012800D17D60386801265C4C10
:10256000012814D13D606079002803D000200AF0D2
:102570003BFA65712078002809D00AF05DFA00283E
:1025800005D05948C038866300060661A6703869D0
:1025900001282CD13D6100F068F8012080074661D8
:1025A000A079002815D00AF047FA00900AF0A4F9A3
:1025B0000099002901D0E16800E0A168411A0229D0
:1025C00001DA8A1C13DC0099002901D0E06000E0E8
:1025D000A060FFF7C1FE0AF02FFA002806D042489B
:1025E000C038866300060661A67000E02670F868B1
:1025F000012819D100F039F800F037F800F035F86B
:10260000A078002804D1FF2033A1053018F0D1FBB9
:10261000FD60A5702570FFF7C8FE09F08CFD00284D
:1026200002D03148C038C663F8BD10B5284CE078F8
:10263000002801D10AF0FCF901208107886100F02F
:1026400014F8A07800280BD0274CE068002803D1AC
:102650000AF007FA0028F8D10020E06000F005F841
:1026600000201C49C043886010BD08B55020694651
:1026700008806A461088411E11800028F9D108BDE3
:10268000F8B5144819278760174900200860C8600A
:102690000AF0D2F9BD0701240D4E002805D01248DA
:1026A000C03884632C61B47000E03470FFF754FECE
:1026B000084847600D4930798863FFF7D6FFAC6161
:1026C000FFF7D3FF0849002008616C61F8BD0000E6
:1026D00034000020000300407372635C736F635F1B
:1026E000636C6F636B2E63000001004000050040C7
:1026F00000ED00E0FFFFFF7F8107C90E002808DA28
:102700000007000F083880082C4A80008018C06934
:1027100004E080082A4A800080180068C84000064B
:10272000800F704710B50D20FFF7E6FFC4B20420FC
:10273000C043FFF7E1FFC0B2844203D021A11A20B9
:1027400018F037FB10BD0121234A48031060234BCA
:1027500000221A60224A5160224A1060224A116007
:102760001D4980390860704701211B4A48031060E9
:102770001D4A5160194A002111601A4908607047CA
:1027800010B516490868012804D00EA1562018F08B
:1027900010FB10BD154880680022C0B20A6009F025
:1027A000DBFD10BD10B50D4801680029FCD0FFF716
:1027B000E7FF01200B494003086010BD00ED00E079
:1027C00000E400E07372635C736F635F68616C5F69
:1027D000726E672E6300000080E100E000D10040CF
:1027E00000D3004080E200E000D0004000D500406F
:1027F00030B40121BC48C9020160CD1005604A0314
:102800000260BA4803681B021B0A036004680023C5
:10281000240A24020460B6480468240A24020460DE
:10282000B448012444608460B34C23606360A360B7
:10283000B24B19601D601A60B14B19601A6001211A
:10284000016030BC704710B40121A748CC0204607D
:102850000A0202600B060360A64841608160A64937
:102860000020086048608860A4480460026003603B
:1028700010BC70470121A148C9020160C910016064
:102880007047002805D0012805D0022805D19D48B1
:1028900070479D4870479D48704710B59CA18B209C
:1028A00018F087FA002010BD70B500219F4CA04D94
:1028B000A04A914B002808D001281DD0022822D020
:1028C00093A1B32018F075FA70BD01200004A06038
:1028D000A86011601960984B42109A60974A906006
:1028E000814A00121060964801608748016095484F
:1028F00001609548017070BD01204004A060A8608F
:102900005160596070BD01208004A060A860916092
:10291000996070BDF8B59446844A854D002401271E
:10292000754E002808D0012836D0022844D078A15E
:10293000E82018F03EFAF8BD891E0902090A0120B4
:1029400000049060346068607A4A1160012B21D0E5
:1029500000217D4A7D4B517061463D31DC63DF6370
:102960007B4B5C6002249C6004241C61744B1960E6
:1029700074490F60614B89151960704B586060484D
:10298000016075487349C16086606B4960034860A7
:102990001770F8BD0121DCE701205C4E40046F4F49
:1029A000012B04D13460506068603960F8BD9060DC
:1029B000346068603960F8BD0120524E8004684F71
:1029C000012BF4D1EEE767484068704770B54A4D77
:1029D00028680026554C012806D1A068C00303D5FD
:1029E00001200004A0602E606868012809D1A06859
:1029F000800306D501204004A0606E6001200AF02B
:102A0000FEFFA868012809D1A068400306D501206F
:102A10008004A060AE6002200AF0F1FF70BD10B526
:102A200049490878002818D00120434AC003906023
:102A3000424A400090602C4A00121060404A002038
:102A40001060314A10603F4A106008704A78002ACE
:102A500002D048700AF0D3FF10BD0320FAE701202E
:102A600041490006086070470120244900060860BB
:102A7000704701203C4940050860704701201F490C
:102A800040050860704731490020C86388151B491C
:102A900008607047410A354AC005C00D5043801C8C
:102AA0005143400A0818704710B4314C430B63433C
:102AB0001B0C5C020C602D4C6343C31A2D485C0256
:102AC00058432A4B400D4343E31A0124DB032404FB
:102AD0001B191B1613700A681018086010BC704789
:102AE00010B50BF05FF810BD80E100E008E400E0F5
:102AF00018E400E000B0004040B1004080E200E097
:102B000000E100E048B100404081004044B1004095
:102B10007372635C72656D5F68616C5F6576656E2C
:102B2000745F74696D65722E6300000000B300402D
:102B300040B3004040B5004000F501400083004034
:102B4000408500400082004044000020C08F0040CB
:102B5000008500400080004080F5014044B5004001
:102B600048B5004000B5004000E200E0093D00002B
:102B7000378600006F0C010010B50AF0FFFF10BD92
:102B800000200449C863012001218140024A1160EC
:102B900000BF7047C01F004080E200E010B50DF09C
:102BA00077FA09F017FBFEF7F1FB0FF00BFC0EF0C4
:102BB000A1F80EF02DF810BD70B50C46054603F0D7
:102BC00049FC214628460FF0D4F870BD70B50D467B
:102BD000040012D0002D10D02101284617F0AAFFC2
:102BE00010225449284617F048FF5248012108385E
:102BF000018044804560002070BD012070BD70B52B
:102C00004C4E00240546083E11E071682001401832
:102C1000817BAA7B914209D1C17BEA7B914205D19C
:102C20000C22294617F0FCFE002806D0641C3088D0
:102C30008442EADB0020C04370BD204670BD70B501
:102C40000D4606000AD0002D08D03A4C083C2088DA
:102C50006188401C884203D9042070BD102070BDDB
:102C60003046FFF7CCFF002801DB401C0AE020883B
:102C70006168000140181022314617F0FEFE2088DE
:102C8000401C20802870002070BD70B514460D00D7
:102C90001FD0002C1DD00021A170022802D01028C6
:102CA00017D108E0687829780002084311D0012183
:102CB000A17010800BE02846FFF7A1FF002808DB79
:102CC000401CA070687B297B000208432080002004
:102CD00070BD012070BD70B5054614460E000AD0C7
:102CE00000203070A878012807D004D9114908398C
:102CF0000A8890420BD9012070BD002C04D028789E
:102D000020702888000A50700220087010E0002C03
:102D10000CD049680001411810222046103917F0E4
:102D2000ACFE287820732888000A60731020307069
:102D3000002070BD50000020584910B5884206D3CD
:102D400001218904884204D35549884201D21020C8
:102D500010BD0146012005F0F1F910BD30B5044663
:102D600093B000200D46079014210BA817F0E4FE45
:102D70001C21684617F0E0FE6A46112010770020FB
:102D80005077107802210843107007A80C9001209A
:102D900008AA907243486A4610850AA80B902088BA
:102DA000108460885084A0889084E088D084907FCC
:102DB000F9210840801C4008400090770820908648
:102DC000108708A80F9010AA0BA9684600F05EFFB4
:102DD000002803D110A800882880002013B030BD3F
:102DE0003EB504460820694608802C48844206D334
:102DF00001208004844204D32948844201D2102057
:102E00003EBD2146012005F099F90028F8D120881F
:102E1000694688806088C880A0880881E0884881E9
:102E200006F051F801AB6A46002101F0AEFB69469D
:102E300009880829E4D003203EBD1FB504460020C0
:102E4000029008206946088114480391844206D301
:102E500001208004844205D31148844202D210200C
:102E600004B010BD06F02FF8014602AA0E4801F08A
:102E700018FD0028F4D169460989082901D00320EA
:102E8000EEE769460988218069464988618069467C
:102E90008988A1806946C988E180E1E700D0010006
:102EA00000280020042A0000FFFF000010B5031DC9
:102EB00003600020521E04E05C181C60401C234686
:102EC000C0B29042F8DB0020186010BD01460A68CD
:102ED0000020002A02D0104612680A60704702687B
:102EE0000A6001607047000000B51E2823D00BDC8B
:102EF0000C281CD01FDC030018F07CF8090F1D11F2
:102F00001D1D171713151D00302814DD3A38030056
:102F100018F070F8030F11091100002000BD2148BE
:102F200000BD042000BD0D2000BD0F2000BD082005
:102F300000BD112000BD032000BD10B50C460CF0F3
:102F40004FFF00281ED020460BF02FFD002816D082
:102F500022780E2A0DD00F2A0BD0022A09D0032A7C
:102F600007D0102A09D010A17C2017F022FF0020E2
:102F700010BDA078FFF7B8FF10BD112010BD0AA149
:102F80008220F2E708A18820EFE710B50BF0BEFB26
:102F900010BD10B50BF009FD10BD10B50BF036FCDF
:102FA00010BD0000023000007372635C686F7374C0
:102FB0005F6863692E63000010B50146202209484E
:102FC00017F05BFD07490020C877084610BD064989
:102FD000012048610548064A0168914201D100215B
:102FE00001607047241400200005004060000020AC
:102FF000BEBAFECA70477047704770477047704747
:1030000010FFFFFFDBE5B15100D001005E00FFFFC4
:1030100003B40148019001BD09000020002803D03D
:103020008178012939D101E0102070470188FC4ADC
:10303000881A914233D01BDCFA4A881A91422ED06A
:103040000BDC00292BD00320C002081A27D001284E
:1030500025D001210903401A07E001281FD00228CA
:103060001DD0FF281BD0FF380138002815D116E0ED
:10307000FF220132811A904211D008DC01280ED0C3
:1030800002280CD0FE280AD0FF2806D107E001292B
:1030900005D0022903D0032901D0002070470F205A
:1030A000704700B50A2821D008DC030017F0A2FF02
:1030B0000A1C2024241A24282224261A102819D075
:1030C00008DC0B2816D00C2814D00D281AD00F2895
:1030D00008D111E011280FD0822807D084280DD004
:1030E00085280DD0032000BD002000BD052000BDB7
:1030F000CD4800BD072000BD0F2000BD042000BD4D
:10310000062000BD0C2000BD70B500290BD0CB1FE0
:10311000FA3B81241E46CDB2112B1BD2012805D0CB
:10312000022806D009E0002010701DE0FF200430C6
:1031300001E0FF200330814218D0330017F05AFF1E
:10314000111613131613161613161616131313133C
:10315000161316000846FF3881381F2803D9FF3997
:10316000FE39022902D81570002070BD14700720A6
:1031700070BD00B5030017F03DFF060406040C08FF
:103180000A0C002000BD112000BD072000BD082052
:1031900000BD032000BD00780207120F04D0012AF1
:1031A00005D0022A0AD10EE0000907D108E0000983
:1031B000012805D0022803D0032801D0072070473A
:1031C00008700020704706207047002807D00128AB
:1031D00007D0022807D0032807D007207047002017
:1031E00004E0112002E0212000E0312008700020DE
:1031F000704738B50C4605004FD06946FFF7CBFF46
:10320000002822D120880321890288436946097851
:103210008907090D084320806946681CFFF7BBFF3A
:10322000002812D1218803200003814368460078DA
:103230008007800C01432180A8784007820F20205E
:10324000012A03D0022A03D0072038BD814300E0C1
:103250000143218088B20105890F08D0012189032B
:103260008843A9780907C90F89030843208080B2E1
:103270008104890F0AD0A9784004C906C90F400CFF
:10328000C903084320808004800F02D120884004B5
:1032900003D52088402108432080002038BD70B528
:1032A00004460020088015466068FFF7A2FF00284A
:1032B00015D12189A089814210D861688978C90710
:1032C00008D001214902884208D8491C17F04FFC58
:1032D000298009E0FF21FF31884201D90C2070BD0F
:1032E000FF30FF3003302880002070BD10B5137808
:1032F00004785B08E4075B00E40F23431370FD24AC
:1033000023400478A407E40F640023431370FB24D4
:10331000234004786407E40FA40023431370F724C8
:10332000234004782407E40FE40023431370EF24C0
:1033300023400478E406E40F240123431370DF24C0
:1033400023400478A406E40F64012343137000783B
:10335000BF244006C00F234080010343137000299F
:1033600006D00878C10701D1800701D5012000E00F
:103370000020C0015906490E0843107010BD30B539
:103380000A8803239B0204889A4323059D0F02D1D8
:10339000A3049C0F01D09B0F00E001239B021A4362
:1033A00003230A801B039A4303889804840F02D1E5
:1033B0001805830F01D0800F00E0012000030243B5
:1033C0000A8030BDF3B593B00D000FD013980028DC
:1033D0000FD01221284617F0ADFB03AAFF210120D0
:1033E00003F042FA0024264637467AE0102015B052
:1033F000F0BD0720FBE76846807D01280BD16846B9
:10340000818A0520C002081A10D0012810D0022895
:1034100012D0032812D0042C14D0052C15D113E09F
:10342000022900000128000003300000012400E010
:1034300002246846468A08E0032406E0684604241D
:10344000478A02E0052400E006246846418A139872
:10345000814246D12C74002E41D00DAA0EA9052020
:1034600002920191009010230022FF21304603F0C8
:103470009CFA002823D16846808E2A46C0B20EA945
:10348000FFF703FC00281AD1AE81002F27D00DA929
:10349000052008AE02910090132300220196FF211F
:1034A000384603F082FA002809D16846808EF11C64
:1034B000C01EC0B22A1DFFF7E8FB002801D0032080
:1034C00095E708A88178427808021043E881062C25
:1034D00005D16846807DA8726846808A28810020D0
:1034E00085E703A803F0C9F9002884D0FFF7D9FDC8
:1034F0007DE7002805D0FE4A012903D0022903D028
:1035000003207047518800E09188814201D100205A
:1035100070470720704770B50C4605461C212046B1
:1035200017F008FB00202080002D08D0012D04D0CA
:10353000F0A1F54817F03DFC70BD062000E0052025
:10354000A07070BD70B592B01546064601206A465F
:10355000107110745374084608300395029048881F
:103560009082FEF76AFA040019D065801720694638
:103570008883203600940AAB7178023307AA01A829
:103580000EF0FFF906466078000701D5FEF736FA1F
:10359000002E0AD03046FFF7ECFD12B070BD1321AB
:1035A000284606F0D3F80320F7E708A800906846FD
:1035B000838B04220121284607F063FFEDE710B555
:1035C0000EF0E5FB10BDF0B589B000260546059666
:1035D00000780C460827030017F00CFD0CFD070CC3
:1035E0003A0B77779EC2FCD8E8FD68680A38FEF788
:1035F000A1FB0DE1A888002380B2012203210090E5
:1036000008F0E5FB0290002C04D0BF48B9A1583067
:1036100017F0CFFB0298002804D10B20B5A1800140
:1036200017F0C7FB0298009908300DF0DFFDFEF798
:1036300004FA040007D06078384360700098608016
:10364000FEF7DCF9E6E01321009806F07FF8EFE0E2
:10365000002C04D1AC48A7A16F3017F0AAFB6088FA
:1036600000230122032108F0B2FB0090002804D1BE
:10367000A548A0A1723017F09CFB0099002008809B
:103680002A7994461EE0C3005B199B6807936B463A
:103690009B8B1A0708D5DA0606D56046C20050197A
:1036A0004038C08F088006E05B0409D50871C2006D
:1036B0005019C08848806078384360700226A7E0BF
:1036C000401CC0B28445DED8A2E0E8886946088084
:1036D0000090002C04D18C4886A1823017F069FB41
:1036E0002878062814D10098C00B11D060880023D8
:1036F0000122032108F06BFB060004D182487DA162
:103700008C3017F056FB00203071A88870803BE0A9
:103710006078384360707BE0002C04D17A4875A152
:103720009E3017F046FB608800230122032108F039
:103730004EFB0090002804D161206EA1C00017F05C
:1037400038FB009808300EF074FB0121484002D18C
:10375000E888C00B5CD0009861880226C180D7E75A
:10376000002C04D1684863A1BA3017F022FB6088AE
:1037700000230122032108F02AFB002804D1C920DC
:103780005CA1800017F015FB0226C1E7002C04D1D4
:103790005D4858A1C63017F00CFB02266188012253
:1037A0002046FEF7D8FA01200590B1E7A88900234A
:1037B00080B201220321009008F009FB0746002C8B
:1037C00004D051484BA1D83017F0F3FA002F07D19D
:1037D00048A101E00FE016E00D20800117F0E9FAA2
:1037E00068680290288969468881012202A90098A8
:1037F000FEF7CDFA0CE0002C8AD143483DA1E3301E
:1038000017F0D7FA84E740483AA1E83017F0D1FA28
:10381000002C0DD0607800070AD50598002807D144
:10382000842020702046582229460830FDF7CCFC21
:10383000304609B0F0BDF7B50C460546007A224681
:1038400088B00A320292921C04920027811E16321E
:103850003E4601920B0017F0CDFB08F605F539390D
:103860008DD2F4F5688800230122032108F0AFFA15
:103870000190002804D16D201EA1C00017F099FA14
:1038800001980088002802D05227072600E151271E
:103890001E26002C7ED06888A0800120A07101988F
:1038A00002990079C0004019C089FFF78BFD0028FC
:1038B00071D101980079C0004019C0892081019818
:1038C0000079C0004019408AA08301E1698A009113
:1038D00006282FD1E889C00B2CD00846223051276A
:1038E00086B2002CD6D0A8890499FFF76BFD0DE0B5
:1038F0002C1200207372635C67617474735F636F72
:1039000072652E630000000067020000002874D179
:103910006888A0800220A071A88920810120A0725F
:10392000288AE083009820846969009A019817F03A
:10393000A4F8CDE008462030502786B2002CA9D04C
:10394000A8890299FFF73EFD002856D16888A0801B
:10395000A889E080287A06280AD002202072288AC6
:10396000A0830098E083204669692030009ADEE752
:103970000120F3E7688800230122032108F027FAD9
:103980000690688A00900698002807D13D20FA49E1
:10399000000101E081E030E017F00BFA06980830F2
:1039A0000EF047FA0121484002D1E889C00B23D02C
:1039B00000985127223086B2002C78D06888A080E9
:1039C000A8890499FFF7FEFC002816D10220A071F7
:1039D000A88920810420A072288AE083009820848E
:1039E0006969009A019817F048F806990020087153
:1039F0000698A98941806BE003200BB0F0BD688870
:103A000004F0F2FC0190688800230122032108F0F1
:103A1000DEF900900198002804D1FF20D6498000EB
:103A200017F0C7F90098002803D1D349D34817F0FD
:103A3000C0F90098D249C088884205D05127222673
:103A400004E01EE03FE035E050272026002C2ED079
:103A50006888A080502F07D00220A0712146287BC3
:103A60000831FFF758FD33E0287BA11DFFF753FD18
:103A70006A88002300990198FFF764FD0028BCD1F3
:103A800026E0C049A889C988814207D15427062663
:103A9000002C0CD06888A0801AE008E05327082684
:103AA000002C04D06888A080A889E08010E00A98E3
:103AB000068013E055270726002CF8D0A889A0809F
:103AC0000020A07104E0AD48AB494D3017F071F90A
:103AD0000A98002C068001D02780668000208CE7A1
:103AE000A84900200870704730B585B00C4601F039
:103AF00079F905460020208020716080401EE0801A
:103B00002046294608300DF065FB6A46294601200B
:103B100002F0AAFE10240CE068468088010708D550
:103B2000204369468880C888FF232946019A02F00D
:103B3000C6FF684602F0A1FE0028EDD005B030BDFA
:103B40000A46014610B5104608300DF057FB10BD6F
:103B500070B5002305461A46032108F038F9040021
:103B600004D186488449873017F023F92046294636
:103B700008300DF03BFB70BDF0B591B00C46074628
:103B800004F032FC050005D02878222804D2082051
:103B900011B0F0BD7C48FBE700231A4603213846EC
:103BA00008F015F90646002C02D0A08800280CD099
:103BB0000120694608710220087400204874002C16
:103BC00005D0A0880883206802E00920E0E7088388
:103BD00005903046083003970290FDF72EFF040051
:103BE00018D06780172069468883203500940AAB77
:103BF0006978023307AA01A80DF0C3FE0546607874
:103C0000000701D5FDF7FAFE002D09D02846FFF781
:103C1000B0FABDE71321384605F098FD0320B7E759
:103C200008A800906846838B04220121384607F0DB
:103C300028FC0021C943F180AAE7FFB585B00E9E9C
:103C40007788384604F0D0FB054600231A46032146
:103C5000384608F0BCF80446002D04D147484649D0
:103C6000EE3017F0A6F8002C04D144484249EF305A
:103C700017F09FF80834089869460394C1C105A855
:103C80000DC8203569780DF0EBFAD2E5F0B50446A1
:103C9000002099B00D4601460D9010A8818116466E
:103CA00001818180374A68469180018510A8018092
:103CB00068460187818581841078012808D0022810
:103CC00006D0032804D0042802D0082019B0F0BD83
:103CD0002E48844279D3012189042D4F8C4201D38F
:103CE000BC4272D3294885426FD3012080048542AB
:103CF00001D3BD4269D36068002813D023498842AC
:103D000063D301218904884201D3B8425DD360891D
:103D10002189884203D801225202914201D90C2004
:103D2000D4E70D9016AA0EA92846FFF7B8FA002886
:103D3000CCD1686880784007800F022809D1684696
:103D4000008F8004800F04D02869002801D0B84279
:103D50003BD30AA92069FFF74CFA0028B6D12069A5
:103D600000281AD0607880076846008D12D580043C
:103D7000800F74D011E00000F4380000FD03000053
:103D8000FFFF00002C1200200230000000D00100D4
:103D9000002800208004800F61D16846008D8106D4
:103DA00015D58004800F606804D000280FD0B84279
:103DB0000BD301E000280AD0FE49884205D3012137
:103DC0008904884203D3B84201D210207EE709A9B2
:103DD0006069FFF70EFA0028A2D16069002808D0B8
:103DE0006846808C0105890F012938D18004800F35
:103DF00035D00BA9A069FFF7FCF9002890D16846DF
:103E0000808C80062BD46846808D810627D4A169DA
:103E1000002906D00105890F012920D18004800FD7
:103E20001DD0E068002804D00078002817D01C2896
:103E300015D204AA611C2046FFF758FA012080021F
:103E400010A90880012769468F73DB48888104AA7E
:103E5000033217A92868FEF73EFF002801D007208B
:103E600034E710A8007F15A9C01CC2B200200C9234
:103E70000190FF32009003460291FF3203A8033203
:103E8000109902F054FC002828D110A9888A0F90BC
:103E90002A892969C94801910092029010A90A8BC8
:103EA0006B8928680E9902F042FC002801D0014677
:103EB0004DE0C2480025001F818868464174090A08
:103EC0008174052104A86A4623C210A82A46FF214E
:103ED000808A0C9B02F090FB002802D0FFF7E1F8EB
:103EE000F4E66846007C0322C10900209202904358
:103EF000012292028018149000292CD0014610A8AB
:103F0000018068462921877309028181058608A8F6
:103F1000007C0023410860784900C007C00F0143BE
:103F200008A80174FD2001406078A54A8007C00FF1
:103F30004000014308A801740CA9022001910090DF
:103F4000029503A8109902F0F2FB010003D00F982C
:103F500000F04CFFBAE66068002829D020690028EC
:103F60000DD10AA90EA8FFF70AFA6078800706D4D7
:103F70006946088D032109038843694608858E49EF
:103F800068468773FE3181818D492089891E16F02C
:103F9000EEFD62680D9811AB0192009002930A4603
:103FA000002303A80A9902F0C2FB002800D07EE794
:103FB0002078C10601D480062AD568460586606946
:103FC00000280DD109A90EA8FFF7D9F96846818C00
:103FD0000320800281430120800209186846818401
:103FE0006946888CC82108436946888472488F7363
:103FF000FF30888112AA0CA9022002920191009040
:1040000000236F4A03A8099902F091FB0028CED142
:104010002078C00729D068460586A06900280DD100
:104020000BA90EA8FFF7ABF96846808D0321890222
:104030008843012189024118684681856846818D3F
:10404000402001436846818587735E49818113AAB8
:104050000CA902200292019100900023584A03A863
:104060000B9902F064FB0028A1D1E068002829D058
:1040700010A814990180534968468773491C8181AF
:10408000E16808A80A78027449784174E06841221E
:10409000418868464186E0680023017908A80175D7
:1040A000E068D200C18808A84175090A81750CA88A
:1040B000072101900091029503A8109902F037FBA7
:1040C0000028A4D13D480321001F0170002E0AD012
:1040D0008088308010A88088708010A80089B08007
:1040E00010A88089F0800020F0E530B501248BB065
:1040F00015460B46012802D002281CD104E0684670
:1041000005218473C90203E02B4968468473891E24
:104110008181002B12D003210020890288430121D4
:10412000890240186946888405AA04A91846FEF742
:10413000D2FD002804D007200BB030BD1020FBE7D3
:104140006A46127C1D480092801E05A9FF3201912B
:104150000290FF32002303A80332099902F0E7FA24
:10416000002802D0FEF79DFFE6E71448001F002D4F
:1041700001D04188298004700020DDE770B592B03D
:104180000446012608A886700F496846018400226B
:1041900008A93046FFF7A9FF00284BD12078074D2A
:1041A000C00700242D1F002842D01C21684616F0AD
:1041B000C3FC0BE000D001000328000030120020F7
:1041C000030200000329000001180000684601787E
:1041D000202001436846017008A88670FE496846A1
:1041E000018411940794817FF92001406846891C5D
:1041F0008177002001466846017700200146684625
:10420000417704218185C485018607A80A9011A8F9
:104210000D9008A809900EAA09A96846FFF736FD77
:10422000002807D16846008FE8806846808F288183
:104230002C70002012B070BDF7B5E84900260A784E
:104240009EB0012A04D0022A02D0082021B0F0BD7D
:104250004A88824201D00620F8E71F98824201D1A5
:104260000720F3E7012210A98A75DD488882002023
:1042700003239B02014699439302CB1810A90B8696
:1042800069468A81D74ACA8118A9887110A9888489
:1042900019A904916946CA820690FF20087503A8EF
:1042A00002F00EFB00242546274608AA052103A894
:1042B00002F009FB002810D082286FD1002C6FD0AB
:1042C000002D6DD010A88480C5800021017418A82D
:1042D000807B11AC012865D06DE008A88079002FA3
:1042E00021D0012857D16846818CBD4881421CD11C
:1042F00013AA0DA905206B4607C36846408C1023FE
:104300000022FF2102F051FB002868D110A880890B
:10431000042801D006284CD16846818E1F9881421E
:1043200039D10F2092E7012835D16846808C0521CC
:10433000C902884202D0491C88422CD1A748418832
:104340006846408C814201D1012700E00027002C03
:1043500001D0002D10D01F9988421CD113AB0DAA9B
:1043600005216E460EC6044610230022FF2102F0EE
:104370001CFB002833D101E035460CE010A88089F1
:10438000022801D0102814D1C0B21BAA0DA9FEF733
:104390007CFC00280DD16846468C86E71FE0FFE7CD
:1043A000052053E714A91BA8221DFEF794FC002842
:1043B00001D003204AE710A8007C0023001DC2B2F0
:1043C00010A80274209802900194009215A81C99DC
:1043D00002F0ADF9002802D1804902220A70FEF7EE
:1043E00060FE33E710B50B46401E86B084B203AAC8
:1043F00000211846FEF77AFF04AA052103A80292BD
:104400000191009001230022FF21204602F0F4F8E0
:1044100004466846008A012803D07349734816F0A1
:10442000C8FC2046FEF73DFE06B010BDF0B56B4F50
:104430000446387887B00E46032804D0042802D0FA
:10444000082007B0F0BD04AA03A92046FEF727FF05
:104450000500F6D1606880784007800F02280CD1F3
:10446000684680898004800F07D02069002804D026
:104470005F49884201D21020E3E7208905AA6B46F4
:10448000216907C369460A8A63892068039902F093
:104490004EF9002802D0FEF704FED2E7002E02D02B
:1044A0006846808A3080042038702846C9E738B5CD
:1044B0000C00054609D000236A46FF2102F0D7FA16
:1044C000002804D0FEF7EDFD38BD102038BD694648
:1044D0002046FEF78EFE0028F8D1A078FF21C30702
:1044E000DB0F2846009A02F0EAFAEBE73EB50C0033
:1044F00009D002AB6A46FF2102F0B9FA002804D0C5
:10450000FEF7CFFD3EBD10203EBD0321204616F034
:1045100011FB6846008801A90005800FFEF755FED3
:1045200000280BD16846007920706846008801A9F0
:104530008004800FFEF749FE002801D003203EBD15
:10454000684600796070A278EF20024068460088D3
:10455000C10B09010A43F7210A404104C90FC900F0
:104560000A43A270F9210A40800601D5022000E02A
:104570000120400069460243097A50084000C907FB
:10458000C90F0843A07000203EBD7FB51446052228
:10459000019203AD029500930A462388FF2102F0A1
:1045A0002BF8694689892180FEF77BFD04B070BD38
:1045B000F3B5002799B068460C4607873D460029A9
:1045C0002DD0E068002806D0A068002827D00188F8
:1045D0006A46118707800DE0052A00002C12002092
:1045E00002280000FFFF0000F4380000A5060000CC
:1045F00000280020199803F0F7FE002812D0007858
:1046000022286ED3199800F0EDFB002300901A4683
:104610000321199807F0DBFB060009D104E0102004
:104620001BB0F0BDFD48FBE7FD49FE4816F0C1FB9D
:10463000A078012803D0022801D00720F0E72088C5
:10464000002808D0401E80B203AA009902F00CF99D
:10465000002858D11DE0F148401CE1E76946498A2D
:10466000228891420BD26846807D0025012810D116
:104670006846808AEC4988420BD1012509E09142C5
:1046800003D1002D2AD06D1C01E0022D0BD0032D8B
:1046900004D203A802F0F1F80028DFD082281BD052
:1046A000002830D11EE06946897D0129F1D1694693
:1046B000DD4B8A8A5B1ED11A9A420FD005DCDB489B
:1046C000101A0BD00128E4D108E0012906D0FF39E7
:1046D0000129DED10325E1E7022D14D10D2080024E
:1046E0009EE72DE0E068002814D00EA90522029173
:1046F0000192009069460B8FA2882088FF2101F06B
:104700007BFF002802D0FEF7CCFC89E76846A16851
:10471000008F08806846008AC00601D5C4487FE73C
:104720000798002803D06846008B022801D0032098
:1047300076E70798A1780078012903D0800710D484
:1047400008206DE7C007FBD000220721199807F069
:1047500080F9002802D00725022004E0AF48801C21
:104760005EE70225032008A9087021886846818534
:10477000199808360A90099617216846818712AB66
:1047800002330FAA052108A800970DF0FAF80028B7
:1047900002D0FEF7EEFC43E710A800906846838F36
:1047A00004222946199806F06CFE39E770B50646D2
:1047B00015460C460846FEF731FC002804D12A466F
:1047C00021463046FFF791FC70BD10B5FFF734FD70
:1047D00010BD70B51E4614460D0014D0002C12D02A
:1047E000616800290FD00121FEF783FE002809D15E
:1047F0002068FEF713FC002804D1324621462846E3
:10480000FFF744FA70BD102070BD70B515460C005E
:104810000ED00221FEF76DFE002808D12068FEF7B9
:10482000FDFB002803D129462046FFF7FFFD70BDA0
:10483000102070BDF8B50D4614467E4902468C42E4
:1048400026D36068002808D07B4B984220D30123F0
:104850009B04984201D388421AD3104600F0C2FA52
:104860000646284600F07BFA00280CD16068002834
:1048700010D100236A463146284602F0F8F8002895
:1048800002D0FEF70EFCF8BD68460088800601D411
:104890001020F8BD6188224628466368FFF775FE40
:1048A000F8BDF7B5634D86B01446AA4202D2102077
:1048B00009B0F0BD00F096FA01460390002305AA66
:1048C000079802F0D4F8002822D16846808AC006F2
:1048D00001D55748ECE704A8002605270290009769
:1048E00001966288554B0399079802F05EF80028FC
:1048F0000ED16168A94208D30296019100972388DE
:1049000062880399079802F050F86946098A218065
:10491000FEF7C7FBCCE7002907D0494B0A881B8963
:104920009A4202D83D48401C704741E610B586B017
:1049300004236C46A382424BDC88002C07D01B89E1
:104940008B4201D2914204D93448401C6CE50620C8
:104950006AE56B4619825A820021009101911C8000
:104960000221997005A9029104A903916946FFF7F4
:104970001FFE59E5F3B50C4685B0812069460873E2
:10498000002C1BD0059803F02FFD070018D03878B5
:1049900022286BD3059800F025FA0490002201210B
:1049A000059807F056F800280CD000231A4603217A
:1049B000059807F00CFA05000AD105E0102040E543
:1049C00016483EE511203CE515491E4816F0F1F960
:1049D000284608300CF02CFC06462078012803D02D
:1049E00002283AD007202CE5A18803AAFEF78CFB09
:1049F0000028E4D1B00739D56846007B002837D1BC
:104A0000A079C00734D00022E06805216B4607C3B7
:104A1000638922896888049916E00000023000004A
:104A2000F4380000B6080000032800000028000049
:104A3000013400000028002000D00100FFFF00002A
:104A40002C1200204D0A000001F0D6FD69460873C3
:104A500000280DD0FEF725FBF3E4A18803AAFEF79A
:104A600053FB0028ABD13420064201D10820E8E4F2
:104A70006846037B29463846059AFEF763FDE0E465
:104A8000F7B598B014460D460027189803F0ACFC13
:104A9000002804D00078222803D20820C0E5DB4893
:104AA000BEE5189800F09EF90890002D18D0022C51
:104AB00057D3D748854254D32E19012E02D0711EE8
:104AC00081424ED3A41EA2B22946D2480DF030FA3C
:104AD0001E3E727F317F12020A43904241D1A4B23E
:104AE00003AA0120089901F0BFFE002678E068467D
:104AF000008A010774D5002D3ED0E9193F1D0991A8
:104B0000B9B20A910999CA78897813020B430A99B4
:104B10005918A14225D869464A8A09994F780978D7
:104B20003F020F43BA421CD1C0061CD505200A998A
:104B300001900BAA691809980292009141780278B5
:104B4000080210430022089901F056FD002838D1D0
:104B50000998C178827808026946898D1043884295
:104B600001D00B205CE50998C178827808020A9987
:104B70001043401887B227E0C00625D500200AA9B7
:104B80000E54401C80B21028F9D309A905200291C7
:104B9000009001966846408A10230022089901F08F
:104BA00004FF00280DD10EAA05210AA86B4607C3F1
:104BB0006946488A8B8C0022089901F01DFD002867
:104BC00002D0FEF76EFA2BE56846018A1020814379
:104BD00068460182408AFF23049A089901F06FFF1A
:104BE00003A801F04AFE002881D000231A460321C1
:104BF000189807F0ECF8040003D18749874816F0AD
:104C0000D8F820880028ADD0012108A801700173D0
:104C10004673218868460186204608300990189816
:104C20000A90FCF70AFF05001BD01898688017202F
:104C30006946888010AB023301AA052108A80095B7
:104C40000CF09FFE07466878000704D57348724948
:104C5000223016F0AEF8002F09D03846FEF789FA58
:104C6000DEE41321189804F071FD0320D8E40EA8A7
:104C700000906846838804220121189806F001FC00
:104C80000028A0D12680CBE4F0B500248DB01546D5
:104C90000E46002A09D000F0A5F801460A9003AAA2
:104CA000012001F0E1FD08AF3AE010200DB0F0BDA9
:104CB0006846008A000733D5002105206A4683C272
:104CC00068460A46408A534B0A9901F06EFE002856
:104CD0001FD1002E1FD06946098C3219288861180F
:104CE000091D134688422BD36946488A1070000A72
:104CF0005070088C9070000AD870131D05206A4609
:104D000089C2488A0B8C00220A9901F04EFE0028C5
:104D100001D00320CAE76846008C2018001D84B229
:104D200003A801F0AAFD0028C2D0822802D0FEF715
:104D3000B8F9BBE7002E0ED02988A01C814201D211
:104D40000C20B3E72246314632480DF0F1F8311914
:104D50000870000A4870A41C2C800020A6E700B54B
:104D600085B06946FEF72EFB00280AD16846007C14
:104D7000030016F03FF908052F2F2F2F08080531E3
:104D8000032005B000BD68468078012807D1684639
:104D900000880321C902401A1CD001281AD0684695
:104DA0008079012806D16846808815214902401A79
:104DB00005280FD96846807A012811D168460189F3
:104DC00029200002081A05D0022803D0032801D0A8
:104DD000042805D10F20D4E711A1164815F0E9FFEA
:104DE0000020CEE710B506F0E5FF10BD10B50C466B
:104DF00001F00DFD002804D0692009A1000115F083
:104E0000D8FF2046FEF74DF910BD0000023000002B
:104E100000280020FFFF0000F4380000F60A000020
:104E20007372635C67617474735F636F72652E6322
:104E3000000000001A02000000B5030016F0DAF8C6
:104E40000705070F0F0D090B0F00002000BD1120F3
:104E500000BD082000BDFE4800BD072000BD0320A6
:104E600000BDFEB5054600780E46174610360E37D3
:104E7000022809D003283BD005287DD0FF20F5A1CA
:104E8000FD3015F096FFFEBDCC890A2060430E3040
:104E9000188031230898002A0380F4D0087B801FF3
:104EA000C0B2009094811BE03088716838804878E7
:104EB0000A7800021043F880C8788A78000210430C
:104EC0003881BA1C091D0098FDF7DFFE0099002902
:104ED00001D0002802D000203871788008360A37C7
:104EE0002046641EA4B20028DED100202870FEBD3A
:104EF000CC890A2060430E30188032230898002A9B
:104F00000380F4D0087B401FC0B20090948143E03E
:104F1000716832880878FA803A79C30752085200DB
:104F2000DB0F1A43FD231A408307DB0F5B001A4394
:104F3000FB231A404307DB0F9B001A43F7231A4059
:104F40000307DB0FDB001A43EF231A40C306DB0F16
:104F50001B011A43DF231A408306DB0F5B011A4350
:104F6000BF231A404306DB0F9B011A433A71C00965
:104F700078718A784B7800E014E010021843388189
:104F80003A46C91C0098FDF780FE002802D0002098
:104F9000B870388008360A372046641EA4B200284C
:104FA000B6D1A2E7087BCC89801E80B20190083080
:104FB00060431030188034210898002A018096D070
:104FC00094810198D08117461037E000C0190090F5
:104FD0000EE030883880009878607168019A0098F7
:104FE00015F04BFD019900980836401808370090DD
:104FF0002046641EA4B20028EBD176E7F8B5069EE1
:105000001F460C460546002A05D0607AFF30013065
:10501000D080E08910812878030015F0EBFF0B8821
:1050200007152936435A7582828288000092087BD0
:10503000082805D0032803D08BA1904815F0B9FEAD
:105040000E20388030200BE00092087B042804D02A
:105050008A4885A1173015F0ACFE0E20388031202B
:1050600030800098002833D00099002088812EE0FD
:105070000092087B042804D080487BA12D3015F0D5
:1050800098FE0E2038803220EAE70092087B022842
:1050900004D07A4874A1433015F08BFE0E2038807E
:1050A0003320DDE70092087B042804D073486EA10A
:1050B000583015F07EFE1020388034203080009863
:1050C000002805D00099002088810099C8812870A7
:1050D000F8BD0092207B052806D0062804D067483A
:1050E00061A16F3015F065FE1220388035203080C8
:1050F00000980028ECD0E189818100990020088285
:1051000000996A88CA81E2E70092087B072804D0E8
:10511000592055A1C00015F04CFE0E2038803620D5
:105120009EE73B462846009600F0DAFDF8BD652074
:1051300048A1C00015F03DFEF8BDF3B581B001985F
:105140000C4600780826030015F054FF125F47470D
:105150001B134B0A0A0A0A0A0A0A0A0A0A0A0A5FFF
:10516000002C02D13BA1464808E0607830436070D3
:105170003CE0002CF9D1424836A1083015F019FE68
:10518000F3E7019800238088012287B20421384682
:1051900006F01DFE0546002C04D039482DA1133021
:1051A00015F007FE002D04D135482AA1143015F062
:1051B00000FE3946A81D00F0E5FDFCF73EFC0400AA
:1051C00006D06078304360706780FCF717FC0FE012
:1051D0001321384604F0BAFA15E029481DA12830F9
:1051E00002E007201BA1C00115F0E3FD002C0AD04E
:1051F0006078000707D59320207020465822083099
:105200000199FBF7E1FF0020FEBDE12011A1800024
:10521000EAE710B500210170801D00F0B0FD10BD5F
:105220000A4610B50146901D00F0B4FD10BD70B5E2
:10523000002305461A46042106F0C9FD040004D1E6
:105240000F4804A14F3015F0B4FD2946A01D19E008
:10525000033000007372635C67617474635F636F33
:1052600072652E63000000007372635C6761747482
:10527000635F636F72652E630000000046020000EA
:105280005303000000F07EFD70BDF7B584B0054605
:1052900000276846078187800C4668883B460122C4
:1052A0000421009006F093FD060003D1F649F7486B
:1052B00015F07FFD002C03D00098A080E7802781A7
:1052C000287A21461231C01E0091030015F092FE8B
:1052D0000FF7F6F53809B76172832FC0D6F89D9D98
:1052E000F5003078012804D0E7497020143115F01A
:1052F00060FDA8896A46C1000E319180302111817C
:10530000002C1CD0A08100200DE0C10032790919C9
:105310000A747288CA8182005319DA894A821A8A09
:10532000401C8A8280B2A1898142EED8DDE002A8C9
:10533000009001AB22462946304600F094FCF4E090
:105340003078042804D0D049C120143115F031FD43
:10535000A8890622014650436A460E3090803320C9
:105360001081002CEBD0A18100200EE006214143EA
:105370004A1909199446D289CA816246927C8A7474
:105380006246128A401C0A8280B2A1898142EDD80D
:10539000ABE03078062815D0BB491431DE200FE091
:1053A000A989A1817188E181E9892182EA89296934
:1053B000009827E03078062804D0B349F52014314E
:1053C00015F0F7FCE889694612308880352008819D
:1053D000002CE5D1A9E03078072805D0AA49FF20A4
:1053E00014310D3015F0E5FCA8896A4601460E31EE
:1053F000918036211181002CA1D0A0812046AA895C
:105400000E30296915F039FB6FE0E88969461230E2
:1054100080B2382288800A81002C7ED0A989A1819F
:10542000287A102809D00221A173E9892182EA890A
:105430002969009815F021FB77E00121F4E702A823
:10544000009001AB224629463046FFF70AFD6CE08A
:105450003078082804D08C498D48143115F0A9FC07
:1054600014206946888037200881002C5DD0A989E6
:10547000A181678227820120A07336E03078092855
:1054800005D0814982481431143015F092FC288AE5
:1054900069461430888037200881002C45D00421CB
:1054A000A173A989A181E9892182298A6182204683
:1054B0002A8A14306969A5E702E031E017E020E0AC
:1054C00030780A2805D07049714814312C3015F015
:1054D00070FC14206946888037200881002C24D075
:1054E0000521A173A7812782678237701DE002A87A
:1054F000009001AB224629463046FFF77FFD14E0BD
:105500000BE00D206946392288800A81002C04D0E6
:105510000120E0802781277307E00699088010E0CA
:105520005A485949453015F044FC68460699808828
:105530000880002C05D06846008920806846808855
:105540006080002007B0F0BDF7B5568815460F46BD
:10555000002382B01A460421304606F038FC0400CD
:1055600004D14A484849593015F023FCA41D33465C
:105570002A4639460094029800F093FD05B0F0BD2C
:10558000F7B598B015460F46189802F02DFF002881
:1055900005D00078222804D208201BB0F0BD3D4879
:1055A000FBE700231A460421189806F010FC0400BB
:1055B00004D136483449793015F0FBFBA01D039027
:1055C000189800220321049006F043FA002802D024
:1055D0002078002801D01120DFE717206946012636
:1055E0008880002D0FD0032168460172102181832D
:1055F00013A80246089007A92846FDF76CFB00286F
:105600000DD00720C9E70821684601720021878272
:10561000C943C18205218676C90201830CE0A878BE
:10562000207128886080684605218676C90201833A
:1056300000218782C943C1820CAA023201A902A8B3
:1056400000F0A9FB002802D0FFF7F6FBA5E70AA8A7
:1056500000906846838804220321189805F011FF02
:1056600000289AD1267098E770B594B00D000646D0
:1056700012D002F0B9FE002810D0007822280FD2F4
:10568000082014B070BD000054520000B2030000A6
:1056900005020000023000001020F2E7FE48F0E7AB
:1056A00000231A460421304606F091FB040003D182
:1056B000FA49FB4815F07DFB00220321304606F035
:1056C000C8F9002802D02078002801D01120D8E79E
:1056D000A01D039017210496684681800421017261
:1056E000298881826988C18201218176ED490183FF
:1056F0000CAA023201A902A800F04DFB002802D03A
:10570000FFF79AFBBDE70AA8009068468388042249
:105710000321304605F0B5FE0028B2D102212170E8
:10572000AFE770B594B00D00064608D002F05CFEFD
:10573000002806D00078222805D20820A1E71020F2
:105740009FE7D5489DE7002301220421304606F05B
:105750003EFB040004D1D248D049463015F029FB65
:1057600000220321304606F074F9002802D0207888
:10577000002801D0112084E7A01D03901721049672
:105780006846818004210172298881826988C182EA
:1057900001218176C3490CAA491C0183023201A967
:1057A00002A800F0F8FA002802D0FFF745FB68E7EE
:1057B0000AA800906846838804220321304605F039
:1057C00060FE0028BAD1032121705AE770B594B069
:1057D0000D00064608D002F007FE002806D000782B
:1057E000222805D208204CE710204AE7AA4848E7BB
:1057F00000231A460421304606F0E9FA040004D1D9
:10580000A748A6498B3015F0D4FA00220321304670
:1058100006F01FF9002802D02078002801D01120BE
:105820002FE7A01D03900221049668460172298883
:1058300081826988C182172181800CAA023201A964
:1058400002A800F0A8FA002802D0FFF7F5FA18E73E
:105850000AA800906846838804220321304605F098
:1058600010FE0028BFD1042121700AE7F0B593B0E3
:1058700015000E46074609D002F0B6FD002807D0F5
:105880000078222806D2082013B0F0BD1020FBE7D4
:105890008148F9E700231A460421384606F097FAB2
:1058A000040004D17E487D49D03015F082FA0022F0
:1058B0000321384606F0CDF8002802D020780028D1
:1058C00001D01120E0E7A01D03901721049768463E
:1058D000818004210172298881826988C182B1781E
:1058E0008176318801830CAA023201A902A800F056
:1058F00052FA002802D0FFF79FFAC5E70AA80090E5
:105900006846838804220321384605F0BAFD002842
:10591000BAD105212170B7E7F7B594B015460E4608
:10592000149802F061FD002805D00078222804D2E6
:10593000082017B0F0BD5848FBE700231A460421A1
:10594000149806F044FA040003D15449564815F05F
:1059500030FA00220321149806F07BF8002802D0C8
:105960002078002801D01120E3E7A01D03901498AF
:1059700006270490002D12D0684607728682C582E1
:1059800065801720694688800CAA023201A902A806
:1059900000F001FA002807D0FFF74EFAC9E7052109
:1059A000684601728682EBE70AA800906846838801
:1059B00004220321149805F064FD0028B9D1277052
:1059C000B7E7F7B594B016460D0009D0149802F069
:1059D0000BFD002806D00078222805D20820A8E771
:1059E0001020A6E72C48A4E700231A4604211498A7
:1059F00006F0EDF9040004D12B482849523015F087
:105A0000D8F900220321149806F023F8002802D0C8
:105A10002078002801D011208BE7A01D0390149856
:105A200004900727684607728682172106958180B1
:105A30000CAA023201A902A800F0ADF9002802D098
:105A4000FFF7FAF975E70AA80090684683880422F0
:105A50000321149805F015FD0028C0D1277068E7D0
:105A6000F3B5172093B00C4600291FD021780B0006
:105A700015F0C0FA064C05052404264C1520C01E5E
:105A800082B2E088002802D0A368002B0ED090429A
:105A90000ED90C2015B0F0BD0230000054520000A9
:105AA0008B040000022800009A0500001020F1E796
:105AB000042905D0A088002828D101E00620E9E7C4
:105AC000139802F091FC002804D00078222803D219
:105AD0000820DFE7A248DDE700231A4604211398D7
:105AE00006F075F9050003D19E499F4815F061F94C
:105AF000A81D0290139803902078092701281AD036
:105B0000022805D0042824D0052837D00720C1E773
:105B100069460F7160880882E0884882A06807267D
:105B2000059000223146139805F093FF00282BD1F1
:105B30008B48801CAEE70C216846017161880182A8
:105B4000E1884182A06805900EE02878002813D1F2
:105B50001AE00D216846017161880182A1884182A5
:105B6000E1888182A06806900326002231461398BE
:105B700005F06FFF0028E8D111208BE70E21684661
:105B8000017161780174EFE71720694608840BAA58
:105B9000023208A901A800F0FEF8002802D0FFF7A1
:105BA0004BF977E709A800906846038C0422314638
:105BB000139805F066FC00288BD12178012907D0C5
:105BC000022986D0042905D0052905D0032061E7E4
:105BD000082102E02F705DE70A2129705AE770B5AD
:105BE00092B00D46064602F0FFFB002805D0007873
:105BF000222804D2082012B044E55948FBE70023CC
:105C00001A460421304606F0E2F8040004D1564852
:105C100054499E3015F0CDF800220321304605F09E
:105C200018FF002813D0A41D0F2168460396029484
:105C300001710582172101840BAA023208A901A86B
:105C400000F0A9F8002804D0FFF7F6F8D3E71120F8
:105C5000D1E709A800906846038C0422032130464E
:105C600005F00FFCC7E7FFB583B003980C9D0078E3
:105C70001C4616460F46012804D03A499320143199
:105C800015F097F8F889C0000E3020803020288069
:105C9000387B001FC0B20190002E20D0F889B0815F
:105CA000002516E0E8008419C019009022464169D9
:105CB0000E320198FCF7E9FF002802D00020207482
:105CC000E08100986D1C008A60820098ADB2408A25
:105CD000A082B089A842E5D803990020087031E479
:105CE00070B514460546142204981A8037220280A3
:105CF000002C11D0C889A081002666822878082847
:105D00000BD0092814D00A281DD016492F20143191
:105D1000000115F04EF82E70B4E4087B0C2805D075
:105D20001049B9201431800015F043F8012014E027
:105D3000087B0D2805D00B495D201431C00015F0FB
:105D400038F8042009E0087B0E2805D00549BB205F
:105D50001431800015F02DF80520A073DBE700005A
:105D600002300000545200005B06000010B5FE4BEC
:105D7000586019721A80C90014F0DEFE10BD0021AF
:105D80000180704710B50022D2430280032006F044
:105D90005BFD10BD7047F0B50E460446017801204A
:105DA0008840F24999B0084000906168154608881B
:105DB000EF4A904206D0009A002A06D0EB4A521EC3
:105DC000104202D0012019B0F0BD009A10430880A3
:105DD000002D12D0002028702178EA1C0027681CB2
:105DE00001920B0015F006F910F30E16233A5961D3
:105DF0006F3CB4B08AB8F2F1F0F320780B28EBD006
:105E00000420E0E702212970A1890170090A41708C
:105E1000032097E004212970A1890170090A4170CB
:105E20000198E1890170090A417005208AE0062184
:105E30002970A1890170090A41700199E2890A70EB
:105E4000120A4A70218A0171090A4171A28AE81D69
:105E5000A16914F012FEA08AC01D73E00821297008
:105E60002178082901D110212970A1890170090A1E
:105E700041700198E1890170090A41700520308064
:105E800020466A1D02A91030FCF725FF00287DD1AD
:105E900069463088097A401854E00A212970A1899E
:105EA0000170090A417003200BE00C212970A189BF
:105EB0000170090A41700198E1890170090A417075
:105EC000052030809CE0A08984464000401C81B2BF
:105ED000308888425AD3052958D30E2028700020D4
:105EE00008E0236942009B5A521953701B0A401C58
:105EF000937080B26045F4D33180B9E09A48417A1A
:105F0000002973D0491E4172217B4068C9004518A1
:105F1000A9882868082240180838216914F0ADFDC6
:105F20000221684601710021417128680390A98807
:105F300068460181002101A8FFF7FFF80020A88032
:105F4000002E00D0308093E0297880221143297000
:105F50002978402211432970297889098901123151
:105F60002970A1890170090A4170E289E81C216940
:105F700014F083FDE089C01C3080287841063FD5AD
:105F8000C00975D001216846017200E02CE00021B3
:105F900041723188091D81810495E18901980818B1
:105FA0000590001D06907048017A6846017700212F
:105FB00002A8FFF7C2F8074630880C303080022F65
:105FC00006D0002F54D065E03DE033E01CE05EE0F9
:105FD00065486946097F4268CB00D218037A994226
:105FE00002D29188002902D0042753E02FE0417AA1
:105FF000491C41721560308890800020308049E053
:106000006168A089888033E029788909890116317F
:106010002970A1890170090A41700198E189017014
:10602000090A4170228A681D616914F026FD208AE0
:10603000401D46E728788009800118302870207BB1
:10604000687002207EE760680188090401D4052792
:1060500020E0C088A189884201D006271AE01E20CE
:10606000287001203080606801884904490C018053
:10607000009800280ED03C4800220088A1688300C8
:10608000032006F03CFB61682078887007E0002060
:10609000308003276068009902888A43028038466E
:1060A00091E6FFB59FB0289D0E46002805D0172821
:1060B00003D82A882E4B9A4202D1072023B0F0BD84
:1060C0003278530601D4D20901D00820F6E7002225
:1060D0006B461A715A7114463278431E1D939BB257
:1060E000189303AB1A939706CB1CBF0E1B93821E0B
:1060F000711C3B0014F07EFF209011EE66EE74EEF2
:10610000B0EED4EEEDEEECEEEBEEEAEEE9EEEEEE16
:10611000E8EEE7EEE6EEE5EE90EE05287CD1042110
:1061200068460171A9780172F078B27801021143D2
:10613000684641813179417170788006800E0C2863
:106140002ED009DC801E030014F054FF0919661CD0
:10615000662166246627660012282AD00ADC0E28EB
:1061600021D01028DAD121E038120020FF71000080
:10617000FFFF000016281FD01828CFD11FE0287875
:10618000800701E028784007002845DA45E12878B3
:106190000007F9E72878C006F6E728788006F3E7D5
:1061A00028784006F0E728780006EDE72888C00543
:1061B000EAE72888C004E7E728888004E4E728881D
:1061C0004004E1E72A78920726D50328A6D10520C6
:1061D0006A461071487809780002084310811CE172
:1061E00029784907F0D5062816D3717890B201298D
:1061F00002D0022992D101E0022100E01021189181
:1062000006216A4611710021118102AF189AB11C52
:106210000237921C1B921AE0B3E04A780B78120204
:106220001A433A80801E891C1790BA1C1A9118983C
:10623000FCF72BFD1A991898189A091817986B46AD
:10624000801A1A8980B2521C1A811B9ABF1D824281
:10625000E3D9002886D1E0E028780007B4D51D985E
:10626000694682B20720087100200881701C0A313B
:1062700011E0437807781B023B430B80C378877893
:106280001B023B434B806F463B89121F5B1C001D6A
:1062900092B23B81091D042AEBD2002A71D1BCE0E5
:1062A0002978C9066DD502286BD308206946087184
:1062B0000020488170780872844692B2B01C1A9906
:1062C00019E089E090E07EE067E05BE030E025E007
:1062D00019E013E0BCE0437807781B023B430B80D6
:1062E000831C4B606346D21A6F467B8960445B1CFB
:1062F00092B27B8108319445EDD9CEE728788006AB
:106300003FD5092203E0287840063AD50A2268469C
:106310000271AA880281189A428107E02878000653
